:100000000C940D030C9435030C9435030C943503B8
:100010000C9435030C9435030C9435030C940E1199
:100020000C9435030C9435030C94ED140C94F511D9
:100030000C94B3160C9435030C94CD100C9435032A
:100040000C94A11D0C9435030C94691B0C949B1B00
:100050000C9435030C94460E0C9435030C94350324
:100060000C9435030C9435036364696E6F7073757B
:1000700078585B003000204352433D003A20003066
:100080000030002E003000200054200052200020BC
:10009000726561644572726F723D30780020435220
:1000A00043206572726F72003A4F522D003000206B
:1000B0004352433D002D55433A002D50453A002D03
:1000C00042433A002D58583A002D53423A003A2004
:1000D00000300030002E0030002000542000452069
:1000E00000203F2000E280BE5C5F005F2FE280BE08
:1000F000005F5F5F00E280BEE280BEE280BE002D56
:10010000582D002020206C772020200020202070F7
:100110006520202000202020504520202000202085
:100120002062632020200020202042432020200045
:1001300020202073622020200020202053422020F5
:100140002000202020626520202000202020424521
:10015000202020006320004320002A205265636590
:1001600069766564207061636B6574206C6F6E677F
:100170006572207468616E2052425F53495A45008F
:100180002A20436F6D6D616E64206E6F7420756EF2
:1001900064657273746F6F643A20002A205265732D
:1001A000657474696E67202E2E2E2E002A205265EB
:1001B000667573696E6720746F2077726974652045
:1001C0007061636B6574207768696C652070726517
:1001D00076696F7573207061636B657420776173E6
:1001E0006E27742066696E6973686564002A205200
:1001F00065667573696E6720746F207772697465C0
:1002000020656D707479207061636B6574002A20BD
:1002100057726974696E673A200073657420746F51
:1002200020002A20416C6C6F77202862697473204B
:10023000706175736529200073657420746F2000E8
:100240002A20536F6674776172652D73636F7065D2
:10025000200073657420746F20002A2044656C614F
:100260007954696D656F7574200073657420746FBF
:1002700020005B757365206F662064656C61792072
:1002800030206F722031206E6F74207265636F6D45
:100290006D656E6465642C20696E63726561736957
:1002A0006E6720746F20325D20002A2044656C61E7
:1002B0007920002A20503150322D4553502D496E5F
:1002C0007465726661636520687749442000202860
:1002D000706F7765722D6F6E2D726573657429006E
:1002E00020286578742D7265736574290020286252
:1002F000726F776E2D6F75742D64657465637465A8
:100300006429002A205265736574206361757365E2
:100310003A204D435553523D002A204E4557503107
:1003200050324C49420031363A33353A34370020A6
:10033000004665622020382032303233002A2043C4
:100340006F6D70696C656420002A20503150324D09
:100350006F6E69746F722D76302E392E3332486C81
:10036000696E6B320073657420746F20002A20560A
:100370006572626F736520003000307800736574B9
:1003800020746F20002A204372635F6665656420D5
:1003900000300030780073657420746F20002A20CC
:1003A0004372635F67656E20002A2052656365694A
:1003B0007665643A20002A20456D707479206C6956
:1003C0006E65207265636569766564002A205265F2
:1003D0006365697665643A2022002A204C696E655F
:1003E00020746F6F206C6F6E672C206C61737420AB
:1003F000706172743A20002A204669727374206C0E
:10040000696E652069676E6F7265643A202D3E00E3
:100410003C2D002A204C696E6520746F6F206C6F34
:100420006E672C207465726D696E617465642C2032
:1004300069676E6F7265643A202D3E003C2D002A7C
:10044000204C696E6520746F6F206C6F6E672C2076
:1004500069676E6F7265642C2069676E6F72696E72
:10046000672072656D61696E6465723A202D3E0089
:10047000300030005020202020202020202000525A
:1004800020002A20526561647920736574757000BC
:100490002A204E4557503150324C4942002A2053B1
:1004A000455249414C53504545443D002A20435054
:1004B000555F53504545443D002028706F77657265
:1004C0002D6F6E2D72657365742900202865787410
:1004D0002D72657365742900202862726F776E2D06
:1004E0006F75742D646574656374656429002A20D2
:1004F00052657365742063617573653A204D435589
:1005000053523D002A20566572626F736974793DBB
:10051000002A20503150322D4553502D696E74659C
:1005200072666163652068774944200031363A334A
:10053000353A3437002000466562202038203230BA
:100540003233002A20436F6D70696C656420002A85
:1005500020503150324D6F6E69746F722D76302E8F
:10056000392E3332486C696E6B32002A002A2045DE
:100570004550524F4D20736967206D69736D6174EA
:1005800063682C20696E697469616C697A696E6749
:1005900020454550524F4D002A20454550524F4D61
:1005A00020736967206D61746368002A2063686541
:1005B000636B696E6720454550524F4D0000000047
:1005C000090003020000040508000000000000000C
:1005D000000000000102040810204080010204080D
:1005E0001020010204081020408040040404040488
:1005F00004040402020202020203030303030302CF
:10060000020300000000250028002B00000000006D
:10061000240027002A00CB1B3B0511241FBECFEF6F
:10062000D8E0DEBFCDBF11E0A0E0B1E0E6E9F3E441
:1006300002C005900D92AE34B107D9F725E0AEE4C3
:10064000B1E001C01D92A63CB207E1F713E0CCE097
:10065000D3E004C02197FE010E94491ECB30D10790
:10066000C9F70E94921D0C94BE210C940000FF92C9
:100670000F931F93CF93DF93EC01F62E088119811E
:10068000C8010E947121F81621F06F2DC8010E9447
:100690007921CE01DF91CF911F910F91FF900895A5
:1006A000AF92BF92CF92DF92EF92FF920F931F9380
:1006B000CF93DF9300D0CDB7DEB7809108018823B8
:1006C00031F06BEA75E080E295E00E946B1C82E1FC
:1006D000C82E81E0D82E560190E1E92EF12C11E0D0
:1006E000C7010E947121F50121915F01022E000CCA
:1006F000330B91E08217130609F090E01923FFEF06
:10070000EF1AFF0A89E1E816F10451F78091080118
:10071000882309F440C068E975E080E295E00E9412
:10072000341C612F70E04AE050E080E295E00E94C6
:100730002F1D111123C080910801882331F06DE62F
:1007400075E080E295E00E946B1C00E110E0F6018C
:1007500061916F011A830983CE0101960E943703CC
:100760000F5F1F4F0931110591F782E090E09A83E6
:10077000898363E0CE0101960E9437030F900F90AA
:10078000DF91CF911F910F91FF90EF90DF90CF906D
:10079000BF90AF9008951123C1F2F0CF0F9384B7AB
:1007A0008093B70214BE83B185FB882780F991E05E
:1007B00089278093580126E040E950ED63E070E01E
:1007C00080E295E00E940D1B6BE675E080E295E00B
:1007D0000E946B1C6FE475E080E295E00E946B1C48
:1007E00063E475E080E295E00E94341C67E375E005
:1007F00080E295E00E94341C65E375E080E295E0BC
:100800000E94341C6CE275E080E295E00E94341C8A
:1008100080E295E00E94671C61E175E080E295E06E
:100820000E94341C4AE050E06091580180E295E05B
:100830000E94671D0E94500382E090E00E94712197
:1008400080930801882309F468C064E075E080E2C1
:1008500095E00E94341C4AE050E06091080180E27B
:1008600095E00E94671D6EEE74E080E295E00E94C4
:10087000341C4AE050E06091B70280E295E00E94AB
:10088000601D8091B70282FF06C068ED74E080E2CF
:1008900095E00E94341C8091B70281FF06C06BEC8A
:1008A00074E080E295E00E94341C8091B70280FFE2
:1008B00006C069EB74E080E295E00E94341C80E29F
:1008C00095E00E94671C6CEA74E080E295E00E946B
:1008D000341C2AE030E040E052E16AE770E080E258
:1008E00095E00E94411D6DE974E080E295E00E9470
:1008F000341C2AE030E040E950ED63E070E080E233
:1009000095E00E94411D80E295E00E94671C60E92D
:1009100074E080E295E00E946B1C41E080915801F8
:10092000811101C040E007E026E060E875E280E068
:1009300090E00E94DD0F81E00E94EA148091B902EC
:100940000E94E41480910401909105010E94A91174
:1009500062E874E080E295E00F910C946B1C7F9349
:100960006F932CE131E03F932F939F938F930E94DD
:100970005D1E0F900F900F900F900F900F900895A5
:100980007F936F932FE131E03F932F939F938F934A
:100990000E945D1E0F900F900F900F900F900F9080
:1009A0000895EF92FF920F931F93CF93DF93F82E4A
:1009B000D92FE62E80910801882331F06FE774E08B
:1009C00080E295E00E94341C8091080180FF06C0FF
:1009D00064E774E080E295E00E94341CC091560107
:1009E0000F2D1D2FE00EF12EF11CE016F10631F156
:1009F000F801D1918F01D03130F462E774E080E2E8
:100A000095E00E94341C40E150E06D2F80E295E0BB
:100A10000E94601D30915701332339F328E08C2F59
:100A200090E095958795CD27C0FF06C0C32FC827B6
:100A3000D6952150A1F7D9CFC82FFACF8091570171
:100A4000882379F0C03130F460E774E080E295E00B
:100A50000E94341C40E150E06C2F80E295E00E943F
:100A6000601D80E295E0DF91CF911F910F91FF9083
:100A7000EF900C94671C0C94B3182F923F924F92F6
:100A80005F926F927F928F929F92AF92BF92CF921E
:100A9000DF92EF92FF920F931F93CF93DF93CDB727
:100AA000DEB76E970FB6F894DEBF0FBECDBF80E203
:100AB00095E00E944D1A8C0197FF02C00C94C80D5E
:100AC00080915901E0910101F09102010A30110574
:100AD00011F40C94900D863910F00C94940D9F0134
:100AE0002F5F3F4F309302012093010100838F5FFE
:100AF00080935901DCCF81111AC063E174E080E278
:100B000095E00E94341C6DE172E080E295E00E9465
:100B1000581C6F2D80E295E00E94601C60E174E03B
:100B200080E295E00E946B1C81E08093500110925E
:100B300000010C94C00D1082882381F0A82FB0E032
:100B4000A45EBD4F9C919D3049F481508093590122
:100B50003197F0930201E09301011082109100019E
:100B6000123009F567EF73E080E295E00E94341CD3
:100B7000809159016DE172E08A3050F010922602A6
:100B80006DE172E080E295E00E94581C63E271E042
:100B900080E295E00E94581C67E271E080E295E0F7
:100BA0000E947D1CC4CF113099F4809150018111B5
:100BB000BECF6AED73E080E295E00E94341C6DE1E7
:100BC00072E080E295E00E947D1C10935001AFCF4F
:100BD00080910801813011F0843091F46CEC73E065
:100BE00080E295E00E94341C6DE172E080E295E0C5
:100BF0000E94581C6AE271E080E295E00E947D1C30
:100C000082E292E0909302018093010144E050E07F
:100C10006CE271E08DE192E00E944F1E6C01892B25
:100C200009F0AEC780912102873509F44DC20CF05E
:100C30001EC18B3409F45EC10CF051C08A3209F434
:100C4000B5C184F4882309F4A3C160E871E080E2AF
:100C500095E00E94341C6091010170910201615085
:100C60007109B5C1873409F4B7C1883471F780912F
:100C70000801882331F065E873E080E295E00E9486
:100C8000341CBE016B5E7F4F809101019091020187
:100C90000E94C004019771F48D8980935601809160
:100CA0000801882309F46CC76DE773E080E295E0E2
:100CB0000E94341C6AE773E080E295E00E94341CD5
:100CC00080915601803130F468E773E080E295E06E
:100CD0000E94341C40E150E060915601B4C184355B
:100CE00009F4B6C16CF58F3409F0AFCF80910801DB
:100CF000882331F06AE572E080E295E00E94341CBE
:100D000064E071E080910101909102010E94AF04C2
:100D1000019789F480910401909105010E94A91125
:100D200080910801882309F42BC762E572E080E214
:100D300095E00E94341C6091040170910501BDC1D1
:100D4000853509F4EDC0863509F07FCF6DE673E097
:100D500080E295E00E94341CBE01695E7F4F809165
:100D60000101909102010E94AF040197C9F48F899B
:100D7000988D059720F084E090E0988F8F8B65E642
:100D800073E080E295E00E94341C6F896093080153
:100D900082E090E09A838983CE0101960E94370316
:100DA0004AE050E06091080180E295E00E94671DF2
:100DB00069E473E080E295E00E946B1C6DE373E0F0
:100DC00080E295E00E94341C61E373E080E295E0EC
:100DD0000E94341C6FE273E080E295E00E94341CB4
:100DE00066E273E080E295E00E946B1C69E173E0CB
:100DF00080E295E00E94341C63E073E080E295E0BD
:100E00000E94341C4AE050E06091B70280E295E015
:100E10000E94601D8091B70282FF06C06DEE72E0F5
:100E200080E295E00E94341C8091B70281FF06C0E9
:100E300060EE72E080E295E00E94341C8091B7027F
:100E400080FF06C06EEC72E080E295E00E94341CE8
:100E500080E295E00E94671C63EB72E080E295E01F
:100E60000E94341C4AE050E060915801ECC08F367B
:100E700009F43CCF0CF04AC0873609F4ADC0A4F5A4
:100E8000883509F0E2CE80910801882331F062E2D2
:100E900072E080E295E00E94341CBE01695E7F4FE3
:100EA00080910101909102010E94AF040197B9F471
:100EB0008F89809303018D3418F08CE480930301B3
:100EC000809103010E94E71480910801882309F4AE
:100ED00057C66AE172E080E295E00E94341C4AE065
:100EE00050E060910301AFC0883609F4C0CE8B3664
:100EF00009F0ABCE6BE971E080E295E00E946B1CDB
:100F0000E0915401F091550109959FCE863709F47F
:100F10001DCFBCF5843709F49BC0853709F095CE09
:100F200080910801882331F060E472E080E295E06E
:100F30000E94341CBE01695E7F4F80910101909137
:100F400002010E94AF040197B9F48F898093B9021E
:100F5000823018F081E08093B9028091B9020E943A
:100F6000E41480910801882309F40AC668E372E05A
:100F700080E295E00E94341C4AE050E06091B902A2
:100F800062C0873709F4A0C0883709F47CCF5DCEF2
:100F900080910801813019F0843009F0F1C566EBC9
:100FA00073E080E295E00E946B1CEAC58091080125
:100FB000813019F0843009F0E3C569EA73E080E21A
:100FC00095E00E94341C609101017091020180E261
:100FD00095E00E947D1CD4C580910801882331F0E2
:100FE0006EE973E080E295E00E94341CBE016B5E06
:100FF0007F4F80910101909102010E94C0040197EE
:1010000071F48D898093570180910801882309F438
:10101000B7C566E973E080E295E00E94341C63E99D
:1010200073E080E295E00E94341C8091570180318A
:1010300030F461E973E080E295E00E94341C40E105
:1010400050E06091570180E295E00E94671D98C5CD
:1010500080910801882331F06AEA72E080E295E02D
:101060000E94341C66E071E08091010190910201C0
:101070000E94AF040197E9F4809106019091070165
:10108000029760F482E090E090930701809306015C
:1010900062E772E080E295E00E94341C80910801D2
:1010A000882309F46DC56AE672E080E295E00E944B
:1010B000341C60910601709107014AE050E080E223
:1010C00095E00E947F1D5CC580910801882331F066
:1010D0006EE072E080E295E00E94341C0CED11E0BD
:1010E0007E0133E1E30EF11C5E0181E1A80EB11C2B
:1010F00071E3872E71E0972EFF92EF92BF92AF922D
:101100009F928F92809102018F93809101018F9322
:101110000E945D1E0FB6F894DEBF0FBECDBF0197D3
:1011200071F529893A89FFEFCF1ADF0AF801219377
:101130008F0180910101909102014B895C89840F9C
:10114000951F9093020180930101809108018823EB
:1011500089F02031310534F467E371E080E295E0F5
:101160000E94581C69897A8940E150E080E295E04C
:101170000E94281D21E4C216D10409F0BDCF809140
:101180000801882321F080E295E00E94671C0E94FC
:10119000AE118823B1F0C114D10481F02091060171
:1011A00030910701E0905601009157014C2D6CEDF4
:1011B00071E08AEB92E00E945819E2C46DEE71E092
:1011C000F0CE6CEA71E080E295E00E946B1C8091A9
:1011D000B8028F3F09F4D4C48F5F8093B802D0C4A3
:1011E0008091B902882309F480C08091C7028111DF
:1011F00005C080910903803F09F477C067E571E07D
:10120000411002C064E571E080E295E00E94341C68
:1012100080919B01803128F460E380E295E00E9498
:10122000601C40E150E060919B0180E295E00E94EB
:10123000601D80919C01803128F460E380E295E09C
:101240000E94601C40E150E060919C0180E295E0CA
:101250000E94601D80919D01803128F460E380E24E
:1012600095E00E94601C40E150E060919D0180E2A9
:1012700095E00E94601D60E280E295E00E94601CA3
:101280008091090310E000E0803F19F00091C7024F
:1012900010E0D801AC50BD4FEC91E75FE93008F0A9
:1012A0003EC1F0E0EA5AF64F0C94491E8C0A770AC8
:1012B000890A830A7D0A5F09860A800A7A0A6BE432
:1012C00071E080E295E00E94341C0F5F1F4F0631F1
:1012D000110511F410E000E08091C702801711069B
:1012E000C1F680E295E00E94671C10920C03842DE9
:1012F0008B7371F081149104A104B10449F08091C1
:10130000BD028F3F29F08F5F8093BD024092BC02E7
:10131000C980DA80442009F413C26EED70E080E2E7
:1013200095E00E94341C6BED70E080E295E00E9435
:10133000341C89819A818031974230F469ED70E0E4
:1013400080E295E00E94341C89819A81883E33E0D6
:10135000930708F0BEC167ED70E080E295E00E945F
:10136000341C65ED70E080E295E00E94341C8981B8
:101370009A818436910530F463ED70E080E295E067
:101380000E94341C89819A810A9730F461ED70E0E3
:1013900080E295E00E94341C69817A814AE050E045
:1013A00080E295E00E94791D6EEC70E080E295E0AD
:1013B0000E94341C0BE911E0C70101979A8F898FB5
:1013C000C8018B5991408E159F050CF093C18091F7
:1013D0000801882351F0F301808180FF06C069EC89
:1013E00070E080E295E00E94341C8091080188231F
:1013F00051F0F301808181FF06C064EC70E080E26F
:1014000095E00E94341C80910801882351F0F3017B
:10141000808185FF06C06FEB70E080E295E00E945E
:10142000341C80910801882351F0F301808182FFF0
:1014300006C06AEB70E080E295E00E94341C809167
:101440000801882351F0F301808186FF06C065EB17
:1014500070E080E295E00E94341CF80151908F0109
:1014600080915701882399F080910801813079F4A7
:101470008D8D9E8D8E0F9F1F298D3A8D28173907D0
:1014800031F46FEA70E080E295E00E94341C3FE0A6
:10149000351530F06DEA70E080E295E00E94341C72
:1014A00040E150E0652D80E295E00E94601D809152
:1014B0000801882351F0F301808183FF06C068EAA8
:1014C00070E080E295E00E94341C8091080188233E
:1014D00051F0F301808184FF06C06DE970E080E285
:1014E00095E00E94341CFFEF6F1A7F0A69CF62E417
:1014F00071E0E7CE69E371E0E4CE60E371E0E1CE54
:1015000067E271E0DECE6EE171E0DBCE65E171E0B5
:10151000D8CE6CE071E0D5CE63E071E0D2CE8C9194
:10152000807E582E6C916F71698FC801880F991F4A
:101530009C8F8B8FD1103CC090E4591205C060E2A3
:1015400080E295E00E94601CEB8DFC8DE853FD4F1E
:10155000C080D18080914E0190914F01C81AD90A64
:1015600023E0D694C7942A95E1F7EAE0CE16D10499
:1015700058F460E280E295E00E94601C60E280E244
:1015800095E00E94601C04C0F4E6CF16D104B0F3CD
:101590004AE050E0B60180E295E00E94791D20E427
:1015A000521609F468C36AE380E295E00E94601C69
:1015B000EB8DFC8DE853FD4F8081918190934F011D
:1015C00080934E0130E6531609F440C0351568F09B
:1015D0005520A1F180E4581262C060E280E295E0FB
:1015E0000E94601C65EE70E06EC090EA591631F002
:1015F000E0EC5E1619F0F0E85F1251C0998D9A3058
:1016000008F046C063E5923008F44AC0298D2250A4
:10161000330BB9014AE050E080E295E00E94281DBA
:1016200030E6531691F1351508F43FC0552059F0B6
:1016300080E45816B9F261EE70E045C06FE380E2D5
:1016400095E00E94601C61EF70E03DC0298D233160
:1016500038F4233070F463E5213030F460E204C0E4
:10166000398D60E53531D0F780E295E00E94601C4D
:101670000CC0898D8350990BBC01759567954AE024
:1016800050E080E295E00E94281D6BEE70E01BC0E8
:10169000E98D60E5EA3021F065E4EB3009F060E2C5
:1016A00080E295E00E94601CBBCF90EA6FEF70E093
:1016B000591649F0E0EC5E1609F494CFF0E865EFB6
:1016C00070E05F12B8CF80E295E00E94341CD12C0C
:1016D000FCCDB1010E94131E4AE050E080E295E08B
:1016E0000E94791D89819A81B1010E94131E9A83FB
:1016F000898337CE842D8B7BF9F06FE870E080E230
:1017000095E00E94341C2FE0241528F060E380E26D
:1017100095E00E94601C60E380E295E00E94601CFE
:1017200060E380E295E00E94601C40E150E0642D9F
:1017300080E295E00E94601D80E295E00E94671CB7
:10174000DA82C982842D8B7B09F057C2809108010F
:101750008150833030F46CE870E080E295E00E94C4
:10176000341C8091080180FF47C069E870E080E286
:1017700095E00E94341C89819A818031974230F42F
:1017800067E870E080E295E00E94341C89819A81CC
:10179000883EE3E09E0708F069C065E870E080E2FB
:1017A00095E00E94341C63E870E080E295E00E94BE
:1017B000341C89819A818436910530F461E870E0A7
:1017C00080E295E00E94341C89819A810A9730F466
:1017D0006FE770E080E295E00E94341C69817A81B5
:1017E0004AE050E080E295E00E94791D6CE770E0ED
:1017F00080E295E00E94341C80910801843008F05A
:10180000FCC10BE911E06701F1E0CF1AD108C80172
:101810008B5991408E159F05D4F5F80171908F0179
:1018200080915701882389F080910801813069F403
:101830008D8D9E8D8E0F9F1FC816D90631F466E7D9
:1018400070E080E295E00E94341CFFE0F71530F074
:1018500064E770E080E295E00E94341C40E150E0D3
:10186000672D80E295E00E94601DD1CFB1010E94FA
:10187000131E4AE050E080E295E00E94791D8981C4
:101880009A81B1010E94131E9A8389838CCF80E2D2
:1018900095E00E94671CB1C180915301853008F426
:1018A00065C0109253011092DC011092DD018DE0B1
:1018B0008093DE0180915801882309F428C19E019C
:1018C0002F5F3F4F6901CE0109967C018E01055FB4
:1018D0001F4F2C5F3F4FAE01435F5F4FBE01615F03
:1018E0007F4F8AEB92E00E947D0F8F8598899093BD
:1018F000DF018093E0018D859E859093E1018093C7
:10190000E2018D819E812F8138853093E301209300
:10191000E4019093E5018093E6018B859C8590938B
:10192000E7018093E80189859A859093E901809386
:10193000EA0189819A812B813C813093EB012093CC
:10194000EC019093ED018093EE011092EF01109263
:10195000F0011092F1011092F2018091080184309F
:1019600028F467E18CED91E00E94D104809152014E
:10197000853008F440C0109252011092DC011092A0
:10198000DD018EE08093DE01B092DF01A092E001E4
:101990009092E1018092E2011092E3018AE7809344
:1019A000E40182E18093E5011092E6018091B802A2
:1019B0008093E7011092E8011092E9018091BB0247
:1019C0008093EA011092EB011092EC011092ED016C
:1019D0001092EE011092EF011092F0011092F101BD
:1019E0001092F20180910801843028F467E18CEDB7
:1019F00091E00E94D10480915101853008F46EC0BD
:101A0000109251011092DC011092DD018FE0809361
:101A1000DE018CE18093DF01E0900801E092E001BB
:101A20008091B7028093E1011092E2011092E301EC
:101A30001092E4011092E501809106019091070156
:101A40009093E6018093E701809104019091050154
:101A50009093E8018093E901809158018093EA0115
:101A60001092EB0182E090E00E9471218093EC01E2
:101A70001092ED0182E1C82E81E0D82E00E110E045
:101A8000FF24F394C8010E947121F60121916F0196
:101A9000022E000C330B91E08217130609F090E040
:101AA000F9220F5F1F4F0931110561F7F092EE0126
:101AB0008091B9028093EF018091BD028093F00183
:101AC0008091BC028093F1011092F201F3E0FE15C7
:101AD00028F067E18CED91E00E94D1046E960FB67C
:101AE000F894DEBF0FBECDBFDF91CF911F910F9154
:101AF000FF90EF90DF90CF90BF90AF909F908F902E
:101B00007F906F905F904F903F902F900895EFEDF2
:101B1000F1E083EF91E011928E179F07E1F71DCF5F
:101B2000863911F00C949B05F2901082809150013F
:101B30000A30110511F40C947B0581111EC06FE36E
:101B400074E080E295E00E94341C6DE172E080E276
:101B500095E00E94581C6F2D80E295E00E94601C69
:101B60004AE050E0B80180E295E00E94281D6CE355
:101B700074E080E295E00E946B1C81E0809300019C
:101B80008DE192E09093020180930101109259013E
:101B90008AEB92E00E9497194B015C018091B3029D
:101BA0009091B402A091B502B091B6028815990542
:101BB000AA05BB05BCF4809153018F5F809353014C
:101BC000809152018F5F80935201809151018F5F0C
:101BD000809351018092B3029092B402A092B50218
:101BE000B092B6028BE991E09C01209530953E8F32
:101BF0002D8F68EE262E63E0362E8AEB92E00E944F
:101C00009918D82E882309F447CEC0905601E09049
:101C1000570101E42AE531E0AE014F5F5F4F6BE908
:101C200071E08AEB92E00E94CB187C01412C823457
:101C3000910594F06AE571E080E295E00E946B1CEA
:101C40008091BB028F3F19F08F5F8093BB0251E4FC
:101C5000E52EF12C44244A944AE5642E41E0742E8A
:101C6000F301CF018A5591408E159F050CF0B8CA3B
:101C70008191482AF6CFEB8DFC8DE853FD4F808192
:101C8000918190934F0180934E01A7CC1F920F92A8
:101C90000FB60F921124CF92DF92EF92FF922F9303
:101CA0003F934F935F936F937F938F939F93AF93E4
:101CB000BF93809178002091790030E0322F222765
:101CC000820F932F911DB0E0A0E020910D012223FF
:101CD00009F493C010920D0120911D0520937C0002
:101CE00020910F05309110052F5F3F4F3093100565
:101CF00020930F054091090550910A0560910B054D
:101D000070910C05840F951FA61FB71F80930905BE
:101D100090930A05A0930B05B0930C05A901542FCD
:101D200044275295507F452B09F051C0409105053D
:101D3000509106056091070570910805480F591FDD
:101D40006A1F7B1F409305055093060560930705A6
:101D500070930805C0901001D0901101F12CE12C76
:101D60008C159D05AE05BF0520F49093110180935D
:101D70001001C0901B05D0901C05F12CE12CC81659
:101D8000D906EA06FB0620F490931C0580931B05F8
:101D90001092090510920A0510920B0510920C057D
:101DA000A4E0220F331FAA95E1F7232B81F440937F
:101DB0001705509318056093190570931A05109232
:101DC00005051092060510920705109208058EED84
:101DD00080937A00BF91AF919F918F917F916F9186
:101DE0005F914F913F912F91FF90EF90DF90CF90B7
:101DF0000F900FBE0F901F90189521E020930D01BA
:101E000020911E0520937C0020910D0530910E0538
:101E10002F5F3F4F30930E0520930D054091010534
:101E2000509102056091030570910405840F951F80
:101E3000A61FB71F8093010590930205A093030589
:101E4000B0930405A901542F44275295507F452B88
:101E500009F0BDCF4091FD045091FE046091FF0454
:101E600070910005480F591F6A1F7B1F4093FD04A6
:101E70005093FE046093FF0470930005C0900E0120
:101E8000D0900F01F12CE12C8C159D05AE05BF05FE
:101E900020F490930F0180930E01C0901505D0900F
:101EA0001605F12CE12CC816D906EA06FB0620F42B
:101EB0009093160580931505109201051092020566
:101EC000109203051092040584E0220F331F8A95B7
:101ED000E1F7232B09F07BCF4093110550931205B6
:101EE00060931305709314051092FD041092FE0484
:101EF0001092FF04109200056ACFCF92DF92EF920A
:101F0000FF920F931F9380911F05882309F44EC001
:101F100086E880937A008091100190911101FB0175
:101F20009183808380911B0590911C05FA01918318
:101F300080838091170590911805A0911905B091A3
:101F40001A05F90180839183A283B38380910E01E6
:101F500090910F01F80191838083809115059091F4
:101F60001605F701918380838091110590911205E8
:101F7000A0911305B0911405F60180839183A2838B
:101F8000B38380EF9FE3909311018093100110922F
:101F90001C0510921B0590930F0180930E01109267
:101FA0001605109215058EE880937A001F910F9107
:101FB000FF90EF90DF90CF900895CF92DF92EF9255
:101FC000FF920F93CF93DF936B017C01D42FC22F2D
:101FD00096958795779567957E5E85489F4FA70173
:101FE00096010E94271E3093FC042093FB04B90144
:101FF00076956795CB01820F931F9093FA04809397
:10200000F904C901F3E096958795FA95E1F7860FF3
:10201000971F9093F8048093F7045695479537954A
:1020200027953093F6042093F504C901880F991F72
:10203000280F391F3093F4042093F30461E082E009
:102040000E94C91961E086E00E94C91961E085E03B
:102050000E94C91961E083E00E94C919429A5E9A00
:102060005D9A5B9A62E088E00E94C91961E089E0AC
:102070000E94051A61E089E00E94C91910921B03B1
:1020800010921A031092F2041092ED048FEF8093D5
:10209000EC041092EB041092E6031092E503109208
:1020A000E0031092DF03109219031092180382E0EC
:1020B00084BD94E095BD99EF97BD109213031092E3
:1020C0001403109215031092160310920F0310922E
:1020D0001003109211031092120316BC21E023BDCD
:1020E00085BB80936E008093B00023E02093B10005
:1020F0009093B30083BD1092B20010921B03109214
:102100001A0387BB8093700010926F0010928000BA
:1021100081E880938100809181008F7B8093810092
:1021200080918000806C8093800080918200806824
:102130008093820080E286BB80916F0080628093F2
:102140006F00D0931F05DD2301F18C2F806C8093ED
:102150001E05802F806C80931D0521E030E0C901B1
:1021600001C0880FCA95EAF701C0220F0A95EAF765
:10217000822B8F7380937E0080911E0580937C005C
:1021800010927B008EED80937A00DF91CF910F91BA
:10219000FF90EF90DF90CF9008951F920F920FB6AF
:1021A0000F9211248F939F93AF93BF9380910F034E
:1021B00090911003A0911103B09112030896A11DF4
:1021C000B11D80930F0390931003A0931103B0935C
:1021D0001203809117038F5F809317038D37A8F048
:1021E000109217038091130390911403A09115038B
:1021F000B09116030196A11DB11D80931303909316
:102200001403A0931503B0931603BF91AF919F9150
:102210008F910F900FBE0F901F9018951F920F92E5
:102220000FB60F9211242F933F938F939F9380911A
:102230001A0390911B03019649F080911A03909123
:102240001B03019690931B0380931A038091E6036E
:10225000833609F06BC020911A0330911B038091E3
:1022600018039091190328173907C1F020911A0318
:1022700030911B0380911803909119032817390797
:1022800008F454C020911A0330911B0380910B0174
:1022900090910C012817390708F448C081E0809319
:1022A000E6032091F3043091F40480910D03882318
:1022B00021F080910C0391E0811190E090930E0346
:1022C00080910E03882351F081E080930C031092DB
:1022D000C70280EF8093090310920B0390916F0067
:1022E0009F7D90936F0090916F009B7F90936F0004
:1022F000109270008091840090918500820F931F4E
:102300009093890080938800809180008F7B806803
:1023100080938000809181008F7B80938100B19AAF
:1023200080916F00826080936F005D9A9F918F9182
:102330003F912F910F900FBE0F901F9018958230F4
:10234000910510F482E090E09093C6028093C5025C
:10235000089590930C0180930B0108952091DF0361
:102360009091E00381E0291380E008959091E003CB
:102370009F5F913408F090E02091DF032917E1F38B
:102380006FB7F8942091E6034091C5025091C602C0
:102390002223A9F0292F30E0F901E256FC4F808377
:1023A000220F331FF901E45EFC4F518340831092EA
:1023B000C6021092C5029093E0036FBF0895809308
:1023C000E4038093E2031092E1031092C40210929E
:1023D000C30283E68093E6035093190340931803E6
:1023E0001092C6021092C502E8CF1F920F920FB64C
:1023F0000F9211242F933F934F935F936F937F938B
:102400008F939F93EF93FF938091E6034091840015
:10241000509185006091880070918900843108F0A6
:10242000AFC12091F5043091F604260F371F309389
:1024300089002093880093B1917080FFE8C02091BB
:102440008000206C209380002091810020642093E4
:102450008100813009F05EC020911A0330911B0386
:102460003093C2022093C10210927000911192C069
:102470001092C30293B19170B59B59C1209186000F
:102480003091870040E246BB992309F432C1909114
:102490000E03992359F190910A03911104C0909170
:1024A0000B03911123C0E091C702F0E0EE0FFF1F74
:1024B000E853FD4F31832083E091C702F0E0EC50F8
:1024C000FD4F982F906690839091C7029F5F9093E5
:1024D000C702963111F41092C70290910B03992311
:1024E00029F090910A03915090930A038093E50399
:1024F0008F5F8093E603FF91EF919F918F917F9182
:102500006F915F914F913F912F910F900FBE0F9060
:102510001F901895833169F422E023BD1092B20018
:1025200061E070E070931B0360931A0327BB209354
:1025300070002091E303291709F49CCF9091C30206
:1025400092609093C30290910E03992309F492CF65
:1025500090910A03911104C090910B0391118ACFBD
:1025600090910B03911106C091E090930B039BE0B7
:1025700090930A03E091C702F0E0EE0FFF1FE853CB
:10258000FD4F51834083E091C702F0E0EC50FD4FD6
:102590009CEF28C08093C30290910E03992309F405
:1025A00069CF90910A03911104C090910B0391118E
:1025B00061CF90910B03911106C091E090930B03B2
:1025C0009BE090930A03E091C702F0E0EE0FFF1F3B
:1025D000E853FD4F51834083E091C702F0E0EC5097
:1025E000FD4F9FEF90839091C7029F5F9093C7022A
:1025F000963111F41092C70290910B03992309F4BC
:1026000039CF90910A03915090930A0333CF8231CE
:1026100008F05FC02091E403622F617020FD0BC0C1
:10262000209180002F7B20682093800020918100E2
:102630002F7B209381002091E10326272093E10343
:102640002091E40330E0359527952093E403911120
:102650003DC09091C30290629093C30290910E038B
:102660009923A1F190910A03911104C090910B0359
:1026700091112CC090910B03911106C091E09093A1
:102680000B039BE090930A03E091C702F0E0EE0F8A
:10269000FF1FE853FD4F51834083E091C702F0E0F4
:1026A000EC50FD4F9EEF90839091C7029F5F9093F7
:1026B000C702963111F41092C70290910B0399232F
:1026C00029F090910A03915090930A036093E303D9
:1026D000D1CE6091E1036111BACF209180002F7BB0
:1026E000206820938000209181002F7B209381001F
:1026F000AECF90910E03992309F4F8CE90910A037E
:10270000911104C090910B039111F0CEE091C7029A
:10271000F0E0EE0FFF1FE853FD4F31832083E0917F
:10272000C702F0E0EC50FD4F982F9064CCCE911191
:10273000DDCE90910E03992309F4D8CE90910A032F
:10274000911104C090910B039111D0CE90910B0385
:10275000911106C091E090930B039BE090930A03C4
:10276000E091C702F0E0EE0FFF1FE853FD4F5183E9
:102770004083E091C702F0E0EC50FD4F97EFA3CE0D
:1027800093B19170B59BC3C0409186005091870072
:1027900030E236BB992309F4A2C090910E0399232D
:1027A00051F190910A03911104C090910B03911182
:1027B00022C0E091C702F0E0EE0FFF1FE853FD4F8B
:1027C000518340838066E091C702F0E0EC50FD4FFA
:1027D00080838091C7028F5F8093C702863111F496
:1027E0001092C70280910B03882329F080910A037D
:1027F000815080930A038091C302882329F05B9A59
:102800008091E0038093DF0380910A01882339F1EE
:10281000E091ED0421E02E0F213408F020E08091BA
:10282000EB04821709F49CC0822F90E03091E20300
:10283000FC01E655FB4F30834091C1025091C2022A
:10284000FC01EE0FFF1FE951FC4F51834083309193
:10285000C30287599B4FFC0130832093ED04909174
:10286000E0038091DF03981709F4A6C08F5F8134DD
:1028700008F080E08093DF0390E0FC01E256FC4F1B
:1028800030813093E4033093E203880F991FFC01F9
:10289000E45EFC4F808191811092C4021092E103AA
:1028A0008230910508F067C080918800909189007E
:1028B0002091F3043091F404820F931F90938900C8
:1028C00080938800809180008F7B80688093800057
:1028D000809181008F7B8093810081E00ACE90916E
:1028E0000E03992309F487CF90910A03911104C034
:1028F00090910B0391117FCFE091C702F0E0EE0FB2
:10290000FF1FE853FD4F5183408380645CCF9111DA
:1029100072CF80910E03882309F46DCF80910A0352
:10292000811104C080910B03811165CF80910B034D
:10293000811106C081E080930B038BE080930A0332
:10294000E091C702F0E0EE0FFF1FE853FD4F518307
:102950004083E091C702F0E0EC50FD4F87EF38CFA5
:102960002091ED04E22FF0E0E759FB4F8081886071
:1029700080835B9A74CF33E63093E6039093190318
:102980008093180380916F008D7F80936F008091FA
:1029900081008F7B8093810080E286BB80916F00F5
:1029A000806280936F00E22FF0E0E759FB4F808157
:1029B000806880835D989FCD1092E603E3CF80917D
:1029C000E6038111FCCF089580930D030895809351
:1029D0000901089580930A0108951F920F920FB67E
:1029E0000F9211242F933F934F935F936F937F9395
:1029F0008F939F93AF93BF93EF93FF9320918600A4
:102A00003091870080918400909185008091F2043C
:102A100081115EC15E9A5D985B9890E49093BE02CE
:102A20009091EC049F3F39F09091EC049093ED0469
:102A30009FEF9093EC0440911A0350911B03509325
:102A4000C2024093C102109270004091F90450916B
:102A5000FA04420F531F5093EF044093EE0492E0A8
:102A60009093F2041092F00450938B0040938A00EC
:102A700094E096BB90916F00946090936F008111E9
:102A80003FC190910C0391113BC190910D03909324
:102A90000E0390910E03992309F432C191E09093B3
:102AA0000C031092C70290EF9093090310920B034E
:102AB00027C190910E03992351F190910A0391112E
:102AC00004C090910B03911122C0E091C702F0E085
:102AD000EE0FFF1FE853FD4F31832083806AE091A2
:102AE000C702F0E0EC50FD4F80838091C7028F5FFA
:102AF0008093C702863111F41092C70280910B03B4
:102B0000882329F080910A03815080930A03FF9162
:102B1000EF91BF91AF919F918F917F916F915F9155
:102B20004F913F912F910F900FBE0F901F901895CE
:102B30008B3009F4A5C008F482C08C3009F0E0C0E5
:102B40004091090150E04F5F5F4FE091FB04F0912D
:102B5000FC044E9FB0014F9F700D5E9F700D1124BD
:102B60004091EE045091EF04460F571F50938B0095
:102B700040938A0094E096BB91E09093F204909188
:102B8000ED049F5F913408F090E04091EB04491709
:102B900009F492C0E92FF0E0DF01A655BB4F4FEFDB
:102BA0004C934091C1025091C202DF01AA0FBB1F9A
:102BB000A951BC4F11965C934E934091BE02E759C8
:102BC000FB4F4083442319F040814460408340918F
:102BD000F004442309F46EC05B9A9093EC041092C5
:102BE000BE0292E093BD1092B20041E050E05093DB
:102BF0001B0340931A0397BB9093700081C04091D0
:102C0000F10450E0559547954093F1044091EE044E
:102C10005091EF046091FB047091FC04460F571F24
:102C20005093EF044093EE0450938B0040938A003E
:102C300094E096BB91E0980F9093F20461C090915C
:102C4000BE02992339F04091F10450E05595479523
:102C50004093F1044091EE045091EF046091FB0425
:102C60007091FC04460F571F5093EF044093EE04FD
:102C700050938B0040938A0094E096BB9BE0DCCF9E
:102C80001092BE024091FB045091FC04440F551F6A
:102C90006091EE047091EF04460F571F5093EF04BC
:102CA0004093EE0450938B0040938A0094E096BBCF
:102CB0009CE0C2CF5B9891CFE091ED04F0E0E75942
:102CC000FB4F9081986090835B9A9091ED0485CF43
:102CD0004091BF025091C002B901641B750B409135
:102CE000F7045091F8046417750708F4E2CE8A30AF
:102CF00008F01ECF823008F082CF813009F48DCEEB
:102D000090910E03992351F190910A03911104C0FF
:102D100090910B03911122C0E091C702F0E0EE0FF9
:102D2000FF1FE853FD4F31832083806CE091C70281
:102D3000F0E0EC50FD4F80838091C7028F5F80935D
:102D4000C702863111F41092C70280910B038823C9
:102D500029F080910A03815080930A033093C002C6
:102D60002093BF02D4CE1F920F920FB60F92112460
:102D70002F933F934F935F936F937F938F939F9383
:102D8000AF93BF93CF93DF93EF93FF9340918A006C
:102D900050918B0020918400309185006091F20465
:102DA000EFEFE60FEC3008F062C0F0E0E652F94ECB
:102DB0000C94491EE6161417161716171617161731
:102DC000161716171617671792172B1880916F0092
:102DD0008B7F80936F001092F2048091EC048F3F00
:102DE00079F08091EC048093ED04E091ED04F0E043
:102DF000E759FB4F8081806880838FEF8093EC04DC
:102E00005E98FF91EF91DF91CF91BF91AF919F912C
:102E10008F917F916F915F914F913F912F910F9083
:102E20000FBE0F901F9018951092BE028091F10472
:102E3000869580688093F1048091F0048058809397
:102E4000F00481E0860F8093F2048091EE0490916B
:102E5000EF044091FB045091FC04840F951F909364
:102E6000EF048093EE0490938B0080938A0080910E
:102E70000E03882331F280910A03811104C08091EE
:102E80000B038111BECFE091C702F0E0EE0FFF1FF0
:102E9000E853FD4F318320836068E091C702F0E082
:102EA000EC50FD4F60838091C7028F5F8093C70213
:102EB000863111F41092C70280910B03882309F424
:102EC000A0CF80910A03815080930A039ACF80910A
:102ED000BE02882331F08091F1048695806880934A
:102EE000F1044091F00480E8840F8093F0048BE0BB
:102EF0008093F2048091EE049091EF04E091FB0442
:102F0000F091FC048E0F9F1F9093EF048093EE04CA
:102F100090938B0080938A00403811F05B9AA7CF82
:102F20005B98A5CF8091BE02882309F494C080915C
:102F3000F004882309F48AC080588093F00480E06C
:102F4000E091090171E0872790E00196E80FF92FE1
:102F5000F11DA091FB04B091FC04EA9FC001EB9F1E
:102F6000900DFA9F900D1124E091EE04F091EF0482
:102F70008E0F9F1F90938B0080938A007093F204B2
:102F80008091ED048F5F813408F080E09091EB0434
:102F9000981709F462C0E82FF0E09091F104DF0186
:102FA000A655BB4F9C93C091C102D091C202DF01D4
:102FB000AA0FBB1FA951BC4F1196DC93CE939091E1
:102FC000BE02E759FB4F90839091F004992309F4D6
:102FD00061C090819460908390910E039923A1F138
:102FE00090910A03911104C090910B0391112CC090
:102FF00090910B03911106C091E090930B039BE01D
:1030000090930A03E091C702F0E0EE0FFF1FE85330
:10301000FD4F51834083E091C702F0E0EC50FD4F3B
:103020009DEF90839091C7029F5F9093C702963166
:1030300011F41092C70290910B03992329F09091FB
:103040000A03915090930A035B9A12C08091F10495
:10305000880F8093F10481E073CFE091ED04F0E0FC
:10306000E759FB4F8081886080835B9A8091ED04F3
:103070008093EC041092BE0282E083BD1092B200F5
:1030800041E050E050931B0340931A0387BB8093A9
:103090007000EDCE5B98ECCF8091ED04E091EB04F5
:1030A0008E1761F0EF5FE13408F0E0E0F0E0EE0F42
:1030B000FF1FE951FC4F80819181089590E080E0ED
:1030C00008958091ED04E091EB048E1749F0EF5FD5
:1030D000E13408F0E0E0F0E0E759FB4F808108952B
:1030E00080E008958091ED049091EB04891761F0E0
:1030F0009F5F913408F090E0E92FF0E0E655FB4F38
:1031000080819093EB04089580E008952091ED0470
:103110009091EB04291728F081E0291309C080E081
:1031200007C030E02F5B3F4F81E092171306B9F3E1
:1031300008952091ED048091EB04821769F08F5F70
:10314000813408F080E0E82FF0E0E759FB4F9081F0
:1031500097FFF3CF81E0089580E008958091EB041C
:103160008093ED040895CF93DF93CFE6D0E088817C
:103170008B7F888388818F7D88830E94AE180E9410
:10318000DF1488818D7F88831092700010926E000A
:10319000DF91CF9108952F923F924F925F926F925D
:1031A0007F928F929F92AF92BF92CF92EF920F93A6
:1031B0001F93CF93DF935C013B012A0149011FEF6D
:1031C000C0E0202F2150330B1401220E331EC117F3
:1031D00008F056C0C5010E9486188823C1F3C501B6
:1031E0000E946118D82F8114910441F0982F9F7785
:1031F000C01728F5F401EC0FF11D9083C11106C032
:10320000C5010E944C18F20191838083C5010E9480
:103210007218D7FF19C0EE2009F447C0C01748F54F
:10322000EC2FF0E0D301AE0FBF1F8C938C1509F18A
:10323000E80DF91D8081806180835B9A1AC0F101DD
:103240008081892B8083DACFC01720F4F301EC0F43
:10325000F11D8083EE2069F098E02C2D30E035954B
:103260002795C826C0FE1FC0CE2CC2268695915039
:10327000A1F7CF5FC33011F4F3011281D7FFA7CFBD
:103280008C2F90E0DF91CF911F910F91EF90CF9015
:10329000BF90AF909F908F907F906F905F904F9076
:1032A0003F902F900895C22EE1CFC01778F2E1CF62
:1032B000CF92DF92EF920F931F93CF93DF93D62E8F
:1032C000172FC42EC9010E949F11CD2DD12FCC0ED6
:1032D000DD2ED11CCC16DD06B1F01991812F0E9494
:1032E000B6110023B9F328E08E2D90E095958795CF
:1032F000E126E0FE06C0E02EE82616952150A1F753
:10330000E9CFE82EFACF002351F08E2DDF91CF9137
:103310001F910F91EF90DF90CF900C94B611DF9139
:10332000CF911F910F91EF90DF90CF900895609112
:10333000130370911403809115039091160308955F
:10334000843081F028F48230E9F08330F9F0089578
:10335000883071F0893091F08530B9F48091800027
:103360008F7D03C0809180008F77809380000895C7
:103370008091B0008F778093B00008958091B00065
:103380008F7DF9CF84B58F7784BD089584B58F7D07
:10339000FBCFCF93DF9390E0FC01EC52FA4F2491E6
:1033A00085519A4FFC0184918823C9F090E0880FE1
:1033B000991FFC01E45FF94FA591B491FC01EE5F08
:1033C000F94FC591D49161110DC09FB7F8948C91BC
:1033D000209582238C938881282328839FBFDF91A7
:1033E000CF910895623051F49FB7F8943C91822FA9
:1033F000809583238C93E8812E2BEFCF8FB7F894A1
:10340000EC912E2B2C938FBFEACF1F93CF93DF939A
:10341000282F30E0F901E354FA4F8491F901EC527E
:10342000FA4FD491F901E551FA4FC491CC23A9F098
:10343000162F81110E94A019EC2FF0E0EE0FFF1F54
:10344000EE5FF94FA591B4918FB7F894EC911111FB
:1034500008C0D095DE23DC938FBFDF91CF911F9101
:103460000895DE2BF8CFFC01918D228D892F90E0FD
:10347000805C9F4F821B91098F7399270895FC01EF
:10348000918D828D981731F0828DE80FF11D858D19
:1034900090E008958FEF9FEF0895FC01918D828D4C
:1034A000981761F0A28DAE0FBF2FB11D5D968C9164
:1034B000928D9F5F9F73928F90E008958FEF9FEFA3
:1034C0000895FC01538D448D252F30E0842F90E02A
:1034D000821B930B541710F0CF960895019708950F
:1034E00081EC9BE1892B49F080E090E0892B29F069
:1034F0000E94C11B81110C9400000895FC01A48D51
:10350000A80FB92FB11DA35ABF4F2C91848D90E005
:1035100001968F739927848FA689B7892C93A089E8
:10352000B1898C91837080648C93938D848D981372
:1035300006C00288F389E02D80818F7D8083089505
:10354000CF93DF93EC01888D8823B9F0AA89BB89DA
:10355000E889F9898C9185FD03C0808186FD0DC0C5
:103560000FB607FCF7CF8C9185FFF2CF808185FFE6
:10357000EDCFCE010E947E1AE9CFDF91CF91089561
:10358000EF92FF920F931F93CF93DF93EC0181E0B3
:10359000888F9B8D8C8D98131AC0E889F98980815A
:1035A00085FF15C09FB7F894EE89FF896083E8898D
:1035B000F98980818370806480839FBF81E090E07F
:1035C000DF91CF911F910F91FF90EF900895F62E0C
:1035D0000B8D10E00F5F1F4F0F731127E02E8C8DA6
:1035E0008E110CC00FB607FCFACFE889F9898081EB
:1035F00085FFF5CFCE010E947E1AF1CFEB8DEC0F47
:10360000FD2FF11DE35AFF4FF0829FB7F8940B8F07
:10361000EA89FB8980818062CFCFCF92DF92EF92DF
:10362000FF921F93CF93DF93EC016A017B01122F6E
:1036300060E874E88EE190E0A70196010E94271EE1
:1036400021503109410951095695479537952795DC
:10365000E889F98982E08083211580E1380798F0B4
:10366000E889F989108260E472E48FE090E0A701B4
:1036700096010E94271E2150310941095109569592
:10368000479537952795EC85FD853083EE85FF8539
:103690002083188EEC89FD891083EA89FB8980815B
:1036A00080618083EA89FB89808188608083EA89E0
:1036B000FB89808180688083EA89FB8980818F7D96
:1036C0008083DF91CF911F91FF90EF90DF90CF909B
:1036D00008951F920F920FB60F9211242F938F937C
:1036E0009F93EF93FF93E0913005F0913105808136
:1036F000E0913605F091370582FD1BC090818091E5
:1037000039058F5F8F7320913A05821741F0E09160
:103710003905F0E0E05EFA4F958F80933905FF910F
:10372000EF919F918F912F910F900FBE0F901F904F
:1037300018958081F4CF1F920F920FB60F9211242B
:103740002F933F934F935F936F937F938F939F93A9
:10375000AF93BF93EF93FF9380E295E00E947E1AB0
:10376000FF91EF91BF91AF919F918F917F916F9159
:103770005F914F913F912F910F900FBE0F901F902F
:10378000189580E295E00E94331A21E0892B09F414
:1037900020E0822F0895E0E2F5E01382128288EEA5
:1037A00093E0A0E0B0E084839583A683B7838DE3A4
:1037B00091E09183808385EC90E09587848784EC09
:1037C00090E09787868780EC90E0918B808B81ECEE
:1037D00090E0938B828B82EC90E0958B848B86ECCF
:1037E00090E0978B868B118E128E138E148E089517
:1037F000AF92BF92CF92DF92EF92FF920F931F93FF
:10380000CF93DF936C017B018B01040F151FEB013C
:103810005E01AE18BF08C017D10759F06991D601F3
:10382000ED91FC910190F081E02DC6010995892B65
:1038300079F7C501DF91CF911F910F91FF90EF9024
:10384000DF90CF90BF90AF900895FB0101900020D2
:10385000E9F73197AF01461B570BDC01ED91FC9165
:103860000280F381E02D0994EF92FF920F931F9352
:10387000CF93DF938C017B01D0E0C0E0F701EC0F28
:10388000FD1F6491662361F0D801ED91FC910190D8
:10389000F081E02DC8010995892B11F02196EECF1A
:1038A000CE01DF91CF911F910F91FF90EF9008957E
:1038B0006115710511F00C94251C90E080E00895CD
:1038C000DC01ED91FC910190F081E02D09946BE415
:1038D00071E00C94251C0F931F93CF93DF93EC01A1
:1038E0000E94341C8C01CE010E94671C800F911F26
:1038F000DF91CF911F910F9108950F931F93CF9355
:10390000DF938C01D0E0C0E06115710519F00E94D1
:10391000251CEC01C8010E94671C8C0F9D1FDF91C4
:10392000CF911F910F9108958F929F92AF92BF9266
:10393000EF92FF920F931F93CF93DF93CDB7DEB734
:10394000A1970FB6F894DEBF0FBECDBF7C01FA0180
:10395000CB0119A2223008F42AE08E010F5D1F4F1F
:10396000822E912CB12CA12CBF01A50194010E94A3
:10397000271EF901CA016A300CF5605DD8016E930B
:103980008D01232B242B252B79F790E080E01097D5
:1039900021F0BD01C7010E94251CA1960FB6F89425
:1039A000DEBF0FBECDBFDF91CF911F910F91FF9072
:1039B000EF90BF90AF909F908F900895695CDECF9D
:1039C000CF92DF92EF92FF920F931F93CF93DF93EB
:1039D0002115310581F4DC01ED91FC910190F0811C
:1039E000E02D642FDF91CF911F910F91FF90EF9009
:1039F000DF90CF9009942A30310501F52AE077FF56
:103A00001DC06A017B01EC016DE20E94601C8C010B
:103A100044275527BA014C195D096E097F092AE030
:103A2000CE010E94941C800F911FDF91CF911F91B6
:103A30000F91FF90EF90DF90CF900895DF91CF919D
:103A40001F910F91FF90EF90DF90CF900C94941CFA
:103A50009A01AB01770F660B770B0C94E01C0F9368
:103A60001F93CF93DF93EC010E94281D8C01CE01A0
:103A70000E94671C800F911FDF91CF911F910F91C2
:103A800008950F931F93CF93DF93EC010E94E01CE6
:103A90008C01CE010E94671C800F911FDF91CF9196
:103AA0001F910F9108952115310541F4DC01ED912D
:103AB000FC910190F081E02D642F09940C94941CEA
:103AC0009A01462F50E070E060E00C94531D0F9374
:103AD0001F93CF93DF93EC010E94601D8C01CE01F8
:103AE0000E94671C800F911FDF91CF911F910F9152
:103AF00008959A01AB0170E060E00C94531D0F93A0
:103B00001F93CF93DF93EC010E94791D8C01CE01AE
:103B10000E94671C800F911FDF91CF911F910F9121
:103B2000089508950E94EB1D0E94911D0E94CE03EE
:103B3000C0E7DAE10E943D052097E1F30E94701A88
:103B4000F9CF1F920F920FB60F9211242F933F932C
:103B50008F939F93AF93BF938091C2059091C305BC
:103B6000A091C405B091C5053091C10526E0230F91
:103B70002D3768F129E8230F0396A11DB11D20936D
:103B8000C1058093C2059093C305A093C405B0936B
:103B9000C5058091BD059091BE05A091BF05B0916E
:103BA000C0050196A11DB11D8093BD059093BE0572
:103BB000A093BF05B093C005BF91AF919F918F9126
:103BC0003F912F910F900FBE0F901F901895029666
:103BD000A11DB11DD4CF789484B5836084BD85B513
:103BE000836085BDEEE6F0E0808181608083E1E85E
:103BF000F0E082E08083808181608083E0E8F0E013
:103C0000808181608083E1EBF0E08081846080834B
:103C1000E0EBF0E080818160808386E880937A0029
:103C20001092C1000895AA1BBB1B51E107C0AA1F37
:103C3000BB1FA617B70710F0A61BB70B881F991F4D
:103C40005A95A9F780959095BC01CD010895A1E200
:103C50001A2EAA1BBB1BFD010DC0AA1FBB1FEE1F06
:103C6000FF1FA217B307E407F50720F0A21BB30B51
:103C7000E40BF50B661F771F881F991F1A9469F7CD
:103C800060957095809590959B01AC01BD01CF0129
:103C90000895EE0FFF1F0590F491E02D0994FB01AC
:103CA000DC014150504030F08D910190801919F4A1
:103CB0000020B9F7881B990B0895AEE0B0E0E3E669
:103CC000FEE10C94972185E08C838B899C899A83F3
:103CD0008983AE01495E5F4F6D897E89CE01019671
:103CE0000E9401202E96E2E00C94B32120FD09C031
:103CF000FC0123FD05C022FF02C073836283518350
:103D00004083089544FD17C046FD1DC0DB01FC0142
:103D1000AA0FBB1FEE1FFF1F1094D1F76A0F7B1F66
:103D20008E1F9F1F660F771F881F991F620F711DBF
:103D3000811D911D089533E0660F771F881F991F1D
:103D40003150D1F7F3CF34E0F7CF0F931F93CF93D8
:103D5000DF938C01C8010E941A21EC0197FD08C075
:103D60000E940621892BB1F7B801CE010E9456218D
:103D7000CE01DF91CF911F910F9108958F929F9265
:103D8000AF92BF92EF92FF920F931F93CF93DF9367
:103D90008C01D62F7A01B22E0E941A219C01332762
:103DA0002B32310529F02D323105A9F46894B7F88A
:103DB000D15061F480E0DF91CF911F910F91FF907E
:103DC000EF90BF90AF909F908F900895C8010E9490
:103DD0001A2197FDEFCFCB2DCD7F2B2D2073F9F43A
:103DE0008033E9F4AA24AA94AD0E89F0C8010E9498
:103DF0001A2197FD0CC0282F2F7D283561F4C2644D
:103E0000D25029F0C8010E941A2197FF08C0812CC6
:103E1000912C54011BC0B6FE2BC0C260DA2D812C40
:103E2000912C540120ED280F283028F1C4FD09C041
:103E30002A3008F1C6FF05C02F7D3FEE320F363025
:103E4000C8F0B8010E945621C1FFB4CFC7FF08C017
:103E5000B094A09490948094811C911CA11CB11CDE
:103E60002C2FB501A401C7010E94761E81E0A3CFCB
:103E7000C261D4CF27504C2FC501B4010E94821ECD
:103E80004B015C01C260D15009F3C8010E941A21A4
:103E900097FFC8CFD9CFA0E2B0E0E1E5FFE10C94F5
:103EA0008C215C01962E7A01CE0101966C0180E294
:103EB000F60111928A95E9F7F501B381890130E0A5
:103EC00020E0712C812CA0E041E050E0F801B3FD2E
:103ED0008591B3FF8191982F8F01811107C010E068
:103EE00000E0C801A096EDE00C94A8218E3519F4ED
:103EF0002115310541F1A21713064CF48D3549F116
:103F00008D3229F4811006C0882483941DC0882036
:103F100009F464C0E92FE695E695E695EC0DFD2DD4
:103F2000F11D892F8770BA0101C0660F8A95EAF7E3
:103F30008081682B6083791651F0971510F49F5F8C
:103F4000E9CF9150E7CFA1E02F5F3F4FBFCF812C4A
:103F5000FBCF882019F08E8180628E83AA2359F0CE
:103F6000F6019E012F5D3F4F8081809580833196C1
:103F7000E217F307C9F788248394C5010E941A2128
:103F800097FD16C0E82FE695E695E695EC0DFD2D1C
:103F9000F11D208130E0AC014770552702C03595F6
:103FA00027954A95E2F720FD06C0B5010E945621EB
:103FB000882069F094CFE114F10429F0F70180839F
:103FC000C70101967C019A94812C9110D6CFE114FF
:103FD000F10409F486CFF701108283CFE82FE6952C
:103FE000E695E695EC0DFD2DF11D982F9770BA0121
:103FF00001C0660F9A95EAF79081692B6083782E4D
:10400000A3CFB0E0A0E0E7E0F0E20C948A216C01DD
:10401000EB015A01FC0117821682512CF601E38054
:10402000FE01E3FC8591E3FE8191182FEF018823C7
:10403000E9F090E00E940621892B21F0C6010E9440
:10404000A51EECCF153241F4FE01E3FC1591E3FE11
:104050001191EF01153269F4C6010E941A2197FDF2
:104060008EC01817D9F2B6010E945621852D90E016
:104070008AC000E01A3231F4E3FC1591E3FE11919D
:10408000EF0101E0F12C20ED210F2A3048F101FF72
:1040900037C0FF2059F31836B1F11C3609F43DC082
:1040A000112321F3612F70E088E690E00E940F2138
:1040B000892BE1F2912C812C00FD06C0F501808056
:1040C0009180C50102965C011E3679F5F6014681A4
:1040D000578170E060E0202FC4010E94761E9ECFC1
:1040E00002606F2D70E090E080E040E20E94821E4E
:1040F000F62EFE01E3FC1591E3FE1191EF01C3CF13
:10410000FF24FA94C8CFFE01E3FC1591E3FE119160
:10411000EF01183609F0C4CF08600460FE01E3FC2B
:104120001591E3FE1191EF01BBCF1336C1F401FDF0
:1041300002C0FF24F394C6010E941A2197FD1FC0FC
:104140008114910429F0F4018083C40101964C018B
:10415000FA94F110F0CF00FD61CF53945FCF1B357F
:10416000B9F49E01A4016F2DC6010E944B1FEC0102
:10417000892B89F7F6018381807309F477CF8FEF5C
:104180009FEF511073CFCDB7DEB7EFE00C94A621AF
:10419000C6010E94A51E97FDF2CF1F36A9F130F48B
:1041A000143641F0193639F0006405C01337B9F000
:1041B0001537D1F70062202FA4016F2DC6010E9490
:1041C000BE1E8111C8CFD6CF8114910429F0F4010D
:1041D0006082C40101964C01FA94FF2071F0C6017F
:1041E0000E941A213C0197FD08C00E940621892BDC
:1041F00059F3B601C3010E9456218114910409F4B8
:10420000AACFF4011082A7CF0061D5CF91110C94F1
:104210006E21803219F089508550C8F70895FC014D
:104220000590061621F00020D9F7C00108953197B6
:10423000CF010895CF93DF93EC012B8120FF1AC0AB
:1042400026FF0CC02F7B2B838E819F8101969F833D
:104250008E838A8190E0DF91CF91089522FF18C06C
:10426000E881F9818081082E000C990B009729F4D0
:1042700020622B838FEF9FEFEECF3196F983E88397
:104280002E813F812F5F3F4F3F832E839927E3CFBE
:10429000EA85FB85099597FFF3CF2B81019621F0E5
:1042A00080E2822B8B83E6CF80E1FBCFFB01238171
:1042B00020FF11C026FD0FC08F3F980771F0828349
:1042C0002F7D206423832681378121503109378354
:1042D0002683992708958FEF9FEF089599278827C0
:1042E0000895F999FECF92BD81BDF89A992780B5BE
:1042F0000895262FF999FECF1FBA92BD81BD20BD2A
:104300000FB6F894FA9AF99A0FBE019608952F9273
:104310003F924F925F926F927F928F929F92AF9255
:10432000BF92CF92DF92EF92FF920F931F93CF93A2
:10433000DF93CDB7DEB7CA1BDB0B0FB6F894DEBF39
:104340000FBECDBF09942A88398848885F846E845F
:104350007D848C849B84AA84B984C884DF80EE80A9
:10436000FD800C811B81AA81B981CE0FD11D0FB6B2
:10437000F894DEBF0FBECDBFED01089513E0CCE091
:10438000D3E004C0FE010E94491E2196CD30D10722
:06439000C9F7F894FFCF0D
:10439600021D0214C4093200031401C40901F03FCE
:1043A600F03F5031503253494730310025640025E3
:1043B6003478002E2E2E003C2D0022003150325033
:1043C60000253278256E00300000000000C01AF883
:0E43D6001B611AA01A331A4D1A3F1A0D0A0065
:00000001FF
