:100000000C9403030C942B030C942B030C942B03E0
:100010000C942B030C942B030C942B030C94E210E4
:100020000C942B030C942B030C94C1140C94C91145
:100030000C9487160C942B030C94A1100C942B0396
:100040000C94641D0C942B030C942C1B0C945E1BC1
:100050000C942B030C941A0E0C942B030C942B036E
:100060000C942B030C942B036364696E6F7073758F
:1000700078585B003000204352433D003A20003066
:100080000030002E003000200054200052200020BC
:10009000726561644572726F723D30780020435220
:1000A00043206572726F72003A4F522D003000206B
:1000B0004352433D002D55433A002D50453A002D03
:1000C00042433A002D58583A002D53423A003A2004
:1000D00000300030002E0030002000542000452069
:1000E00000203F2000E280BE5C5F005F2FE280BE08
:1000F000005F5F5F00E280BEE280BEE280BE002D56
:10010000582D002020206C772020200020202070F7
:100110006520202000202020504520202000202085
:100120002062632020200020202042432020200045
:1001300020202073622020200020202053422020F5
:100140002000202020626520202000202020424521
:10015000202020006320004320002A205265636590
:1001600069766564207061636B6574206C6F6E677F
:100170006572207468616E2052425F53495A45008F
:100180002A20436F6D6D616E64206E6F7420756EF2
:1001900064657273746F6F643A20002A205265732D
:1001A000657474696E67202E2E2E2E002A205265EB
:1001B000667573696E6720746F2077726974652045
:1001C0007061636B6574207768696C652070726517
:1001D00076696F7573207061636B657420776173E6
:1001E0006E27742066696E6973686564002A205200
:1001F00065667573696E6720746F207772697465C0
:1002000020656D707479207061636B6574002A20BD
:1002100057726974696E673A200073657420746F51
:1002200020002A20416C6C6F77202862697473204B
:10023000706175736529200073657420746F2000E8
:100240002A20536F6674776172652D73636F7065D2
:10025000200073657420746F20002A2044656C614F
:100260007954696D656F7574200073657420746FBF
:1002700020005B757365206F662064656C61792072
:1002800030206F722031206E6F74207265636F6D45
:100290006D656E6465642C20696E63726561736957
:1002A0006E6720746F20325D20002A2044656C61E7
:1002B0007920002A20503150322D4553502D496E5F
:1002C0007465726661636520687749442000202860
:1002D000706F7765722D6F6E2D726573657429006E
:1002E00020286578742D7265736574290020286252
:1002F000726F776E2D6F75742D64657465637465A8
:100300006429002A205265736574206361757365E2
:100310003A204D435553523D002A204E4557503107
:1003200050324C49420030303A32323A32300020BA
:10033000004465632031392032303232002A2043B4
:100340006F6D70696C656420002A20503150324D09
:100350006F6E69746F722D76302E392E32392D48BA
:100360002D6C696E6B320073657420746F20002AE7
:1003700020566572626F736520003000307800731C
:10038000657420746F20002A204372635F66656580
:10039000642000300030780073657420746F200092
:1003A0002A204372635F67656E20002A20526563CE
:1003B00065697665643A20002A20456D707479205D
:1003C0006C696E65207265636569766564002A20D4
:1003D00052656365697665643A2022002A204C697B
:1003E0006E6520746F6F206C6F6E672C206C61736C
:1003F0007420706172743A20003C2D002A204C69F0
:100400006E6520746F6F206C6F6E672C2074657240
:100410006D696E617465642C2069676E6F726564C6
:100420003A202D3E003C2D002A204C696E65207438
:100430006F6F206C6F6E672C2069676E6F726564DA
:100440002C2069676E6F72696E672072656D6169D5
:100450006E6465723A202D3E00300030005020203E
:1004600020202020202020005220002A20526561D8
:100470006479207365747570002A204E4557503199
:1004800050324C4942002A2053455249414C535066
:100490004545443D002A204350555F53504545444F
:1004A0003D002028706F7765722D6F6E2D72657319
:1004B0006574290020286578742D72657365742928
:1004C00000202862726F776E2D6F75742D646574CD
:1004D000656374656429002A20526573657420631E
:1004E000617573653A204D435553523D002A20569D
:1004F0006572626F736974793D002A205031503201
:100500002D4553502D696E74657266616365206870
:10051000774944200030303A32323A3230002000FD
:100520004465632031392032303232002A20436F53
:100530006D70696C656420002A20503150324D6F17
:100540006E69746F722D76302E392E32392D482D0A
:100550006C696E6B32002A002A20454550524F4D7F
:1005600020736967206D69736D617463682C2069FD
:100570006E697469616C697A696E6720454550528D
:100580004F4D002A20454550524F4D20736967203A
:100590006D61746368002A20636865636B696E67C8
:1005A00020454550524F4D00000000090003020055
:1005B0000004050800000000000000000000000129
:1005C00002040810204080010204081020010204E7
:1005D00008102040804004040404040404040202BF
:1005E00002020202030303030303020203000000EA
:1005F00000250028002B0000000000240027002A0E
:1006000000008E1B310511241FBECFEFD8E0DEBFE6
:10061000CDBF11E0A0E0B1E0ECE1F3E402C0059051
:100620000D92A834B107D9F725E0A8E4B1E001C0E4
:100630001D92A03CB207E1F713E0C2E0D3E004C092
:100640002197FE010E940C1EC130D107C9F70E94FC
:10065000551D0C9481210C940000FF920F931F9361
:10066000CF93DF93EC01F62E08811981C8010E9417
:100670003421F81621F06F2DC8010E943C21CE01D3
:10068000DF91CF911F910F91FF900895AF92BF928C
:10069000CF92DF92EF92FF920F931F93CF93DF934E
:1006A00000D0CDB7DEB780910801882331F066E92C
:1006B00075E08AE195E00E942E1C82E1C82E81E05F
:1006C000D82E560190E1E92EF12C11E0C7010E94CD
:1006D0003421F50121915F01022E000C330B91E0D2
:1006E0008217130609F090E01923FFEFEF1AFF0AB3
:1006F00089E1E816F10451F780910801882309F493
:1007000040C063E875E08AE195E00E94F71B612F25
:1007100070E04AE050E08AE195E00E94F21C11117D
:1007200023C080910801882331F068E575E08AE1F3
:1007300095E00E942E1C00E110E0F60161916F012E
:100740001A830983CE0101960E942D030F5F1F4F6C
:100750000931110591F782E090E09A83898363E083
:10076000CE0101960E942D030F900F90DF91CF9143
:100770001F910F91FF90EF90DF90CF90BF90AF90BF
:1007800008951123C1F2F0CF0F9384B78093B10283
:1007900014BE83B185FB882780F991E08927809377
:1007A000520126E040E950ED63E070E08AE195E017
:1007B0000E94DA1A66E575E08AE195E00E942E1C37
:1007C00068E375E08AE195E00E942E1C6CE275E01A
:1007D0008AE195E00E94F71B60E275E08AE195E00E
:1007E0000E94F71B6EE175E08AE195E00E94F71B1D
:1007F00065E175E08AE195E00E94F71B8AE195E0EA
:100800000E942A1C6AEF74E08AE195E00E94F71BBF
:100810004AE050E0609152018AE195E00E942A1D71
:100820000E94460382E090E00E94342180930801F8
:10083000882309F468C06DEE74E08AE195E00E94B7
:10084000F71B4AE050E0609108018AE195E00E94C0
:100850002A1D67ED74E08AE195E00E94F71B4AE0EB
:1008600050E06091B1028AE195E00E94231D8091E1
:10087000B10282FF06C061EC74E08AE195E00E945B
:10088000F71B8091B10281FF06C064EB74E08AE13E
:1008900095E00E94F71B8091B10280FF06C062EADA
:1008A00074E08AE195E00E94F71B8AE195E00E94DE
:1008B0002A1C65E974E08AE195E00E94F71B2AE0B2
:1008C00030E040E052E16AE770E08AE195E00E94A2
:1008D000041D66E874E08AE195E00E94F71B2AE0B7
:1008E00030E040E950ED63E070E08AE195E00E947D
:1008F000041D8AE195E00E942A1C69E774E08AE100
:1009000095E00E942E1C41E080915201811101C0AE
:1009100040E007E026E060E875E280E090E00E94B9
:10092000B10F81E00E94BE148091B3020E94B814FE
:1009300080910401909105010E947D116BE674E0A5
:100940008AE195E00F910C942E1C7F936F932CE11C
:1009500031E03F932F939F938F930E94201E0F901F
:100960000F900F900F900F900F9008957F936F93BB
:100970002FE131E03F932F939F938F930E94201E8E
:100980000F900F900F900F900F900F900895EF928F
:10099000FF920F931F93CF93DF93F82ED92FE62E5C
:1009A00080910801882331F068E674E08AE195E0DF
:1009B0000E94F71B8091080180FF06C06DE574E07E
:1009C0008AE195E00E94F71BC09150010F2D1D2F69
:1009D000E00EF12EF11CE016F10631F1F801D19193
:1009E0008F01D03130F46BE574E08AE195E00E942C
:1009F000F71B40E150E06D2F8AE195E00E94231D36
:100A000030915101332339F328E08C2F90E09595F4
:100A10008795CD27C0FF06C0C32FC827D695215084
:100A2000A1F7D9CFC82FFACF80915101882379F04F
:100A3000C03130F469E574E08AE195E00E94F71B6B
:100A400040E150E06C2F8AE195E00E94231D8AE18D
:100A500095E0DF91CF911F910F91FF90EF900C9453
:100A60002A1C0C9487182F923F924F925F926F929C
:100A70007F928F929F92AF92BF92CF92DF92EF922E
:100A8000FF920F931F93CF93DF93CDB7DEB76E978F
:100A90000FB6F894DEBF0FBECDBF8AE195E00E948D
:100AA000211A8C0197FF02C00C949C0D8091530178
:100AB000E0910101F09102010A30110511F40C944A
:100AC000650D863910F00C94680D9F012F5F3F4F24
:100AD000309302012093010100838F5F80935301C3
:100AE000DCCF81111AC06CEF73E08AE195E00E94BF
:100AF000F71B67E172E08AE195E00E941B1C6F2DF5
:100B00008AE195E00E94231C69EF73E08AE195E099
:100B10000E942E1C81E080934A01109200010C94E7
:100B2000940D1082882381F0A82FB0E0AA5EBD4FFB
:100B30009C919D3049F48150809353013197F093FB
:100B40000201E0930101108210910001123029F39B
:100B5000113099F480914A018111DFCF6CED73E07F
:100B60008AE195E00E94F71B67E172E08AE195E077
:100B70000E94401C10934A01D0CF8091080181301F
:100B800011F0843091F46EEC73E08AE195E00E94FC
:100B9000F71B67E172E08AE195E00E941B1C63E2AB
:100BA00071E08AE195E00E94401C8CE192E0909314
:100BB00002018093010144E050E065E271E087E1C9
:100BC00092E00E94121E6C01892B09F0ADC7809142
:100BD0001B02873509F44DC20CF01EC18B3409F499
:100BE0005EC10CF051C08A3209F4B5C184F4882387
:100BF00009F4A3C160E871E08AE195E00E94F71B67
:100C0000609101017091020161507109B5C1873491
:100C100009F4B7C1883471F780910801882331F055
:100C200067E873E08AE195E00E94F71BBE016B5E06
:100C30007F4F80910101909102010E94B6040197BB
:100C400071F48D898093500180910801882309F403
:100C50006BC76FE773E08AE195E00E94F71B6CE7D2
:100C600073E08AE195E00E94F71B8091500180318A
:100C700030F46AE773E08AE195E00E94F71B40E1F7
:100C800050E060915001B4C1843509F4B6C16CF5EF
:100C90008F3409F0AFCF80910801882331F06AE5E5
:100CA00072E08AE195E00E94F71B64E071E08091B8
:100CB0000101909102010E94A504019789F480919D
:100CC0000401909105010E947D1180910801882303
:100CD00009F42AC762E572E08AE195E00E94F71BF9
:100CE0006091040170910501BDC1853509F4EDC025
:100CF000863509F07FCF6FE673E08AE195E00E94C8
:100D0000F71BBE01695E7F4F809101019091020146
:100D10000E94A5040197C9F48F89988D059720F04A
:100D200084E090E0988F8F8B67E673E08AE195E02E
:100D30000E94F71B6F896093080182E090E09A831C
:100D40008983CE0101960E942D034AE050E0609114
:100D500008018AE195E00E942A1D69E473E08AE1B6
:100D600095E00E942E1C6DE373E08AE195E00E94FD
:100D7000F71B61E373E08AE195E00E94F71B6FE2E5
:100D800073E08AE195E00E94F71B66E273E08AE176
:100D900095E00E942E1C69E173E08AE195E00E94D3
:100DA000F71B63E073E08AE195E00E94F71B4AE0DD
:100DB00050E06091B1028AE195E00E94231D80918C
:100DC000B10282FF06C06DEE72E08AE195E00E94FA
:100DD000F71B8091B10281FF06C060EE72E08AE1EC
:100DE00095E00E94F71B8091B10280FF06C06EEC77
:100DF00072E08AE195E00E94F71B8AE195E00E948B
:100E00002A1C63EB72E08AE195E00E94F71B4AE03E
:100E100050E060915201ECC08F3609F43CCF0CF0E9
:100E20004AC0873609F4ADC0A4F5883509F0E2CE92
:100E300080910801882331F062E272E08AE195E056
:100E40000E94F71BBE01695E7F4F80910101909166
:100E500002010E94A5040197B9F48F8980930301D0
:100E60008D3418F08CE480930301809103010E947B
:100E7000BB1480910801882309F456C66AE172E028
:100E80008AE195E00E94F71B4AE050E0609103017F
:100E9000AFC0883609F4C0CE8B3609F0ABCE6BE913
:100EA00071E08AE195E00E942E1CE0914E01F091E4
:100EB0004F0109959FCE863709F41DCFBCF58437C5
:100EC00009F49BC0853709F095CE809108018823ED
:100ED00031F060E472E08AE195E00E94F71BBE0108
:100EE000695E7F4F80910101909102010E94A504EB
:100EF0000197B9F48F898093B302823018F081E0B2
:100F00008093B3028091B3020E94B81480910801CB
:100F1000882309F409C668E372E08AE195E00E943B
:100F2000F71B4AE050E06091B30262C0873709F4D2
:100F3000A0C0883709F47CCF5DCE80910801813054
:100F400019F0843009F0F0C568EB73E08AE195E0B0
:100F50000E942E1CE9C580910801813019F084306F
:100F600009F0E2C56BEA73E08AE195E00E94F71BA5
:100F700060910101709102018AE195E00E94401C9C
:100F8000D3C580910801882331F060EA73E08AE1DB
:100F900095E00E94F71BBE016B5E7F4F80910101BF
:100FA000909102010E94B604019771F48D8980939B
:100FB000510180910801882309F4B6C568E973E0FE
:100FC0008AE195E00E94F71B65E973E08AE195E00C
:100FD0000E94F71B80915101803130F463E973E086
:100FE0008AE195E00E94F71B40E150E060915101D9
:100FF0008AE195E00E942A1D97C580910801882307
:1010000031F06AEA72E08AE195E00E94F71B66E03F
:1010100071E080910101909102010E94A504019765
:10102000E9F48091060190910701029760F482E053
:1010300090E0909307018093060162E772E08AE1F5
:1010400095E00E94F71B80910801882309F46CC584
:101050006AE672E08AE195E00E94F71B6091060162
:10106000709107014AE050E08AE195E00E94421D3C
:101070005BC580910801882331F06EE072E08AE15F
:1010800095E00E94F71B06ED11E07E0133E1E30ECF
:10109000F11C5E0181E1A80EB11C7AE2872E71E09D
:1010A000972EFF92EF92BF92AF929F928F92809174
:1010B00002018F93809101018F930E94201E0FB631
:1010C000F894DEBF0FBECDBF019771F529893A892B
:1010D000FFEFCF1ADF0AF80121938F018091010100
:1010E000909102014B895C89840F951F90930201B6
:1010F0008093010180910801882389F02031310516
:1011000034F460E371E08AE195E00E941B1C698978
:101110007A8940E150E08AE195E00E94EB1C21E4ED
:10112000C216D10409F0BDCF80910801882321F0B7
:101130008AE195E00E942A1C0E9482118823B1F066
:10114000C114D10481F02091060130910701E09093
:101150005001009151014C2D66ED71E084EB92E05D
:101160000E942C19E1C46DEE71E0F0CE6CEA71E0E2
:101170008AE195E00E942E1C8091B2028F3F09F413
:10118000D3C48F5F8093B202CFC48091B30288230F
:1011900009F480C08091C102811105C080910303D0
:1011A000803F09F477C067E571E0411002C064E553
:1011B00071E08AE195E00E94F71B809195018031F2
:1011C00028F460E38AE195E00E94231C40E150E0AE
:1011D000609195018AE195E00E94231D809196011E
:1011E000803128F460E38AE195E00E94231C40E10D
:1011F00050E0609196018AE195E00E94231D809164
:101200009701803128F460E38AE195E00E94231C75
:1012100040E150E0609197018AE195E00E94231D32
:1012200060E28AE195E00E94231C8091030310E0B4
:1012300000E0803F19F00091C10210E0D801A251F6
:10124000BD4FEC91E75FE93008F03EC1F0E0E55DAD
:10125000F64F0C940C1E610A4C0A5E0A580A520A98
:1012600034095B0A550A4F0A6BE471E08AE195E0A4
:101270000E94F71B0F5F1F4F0631110511F410E09C
:1012800000E08091C10280171106C1F68AE195E065
:101290000E942A1C10920603842D8B7371F0811416
:1012A0009104A104B10449F08091B7028F3F29F065
:1012B0008F5F8093B7024092B602C980DA804420E3
:1012C00009F413C26EED70E08AE195E00E94F71B0D
:1012D0006BED70E08AE195E00E94F71B89819A81AD
:1012E0008031974230F469ED70E08AE195E00E9428
:1012F000F71B89819A81883E33E0930708F0BEC1CD
:1013000067ED70E08AE195E00E94F71B65ED70E003
:101310008AE195E00E94F71B89819A8184369105C4
:1013200030F463ED70E08AE195E00E94F71B89815B
:101330009A810A9730F461ED70E08AE195E00E94AD
:10134000F71B69817A814AE050E08AE195E00E94CA
:101350003C1D6EEC70E08AE195E00E94F71B05E908
:1013600011E0C70101979A8F898FC8018559914073
:101370008E159F050CF093C180910801882351F0D0
:10138000F301808180FF06C069EC70E08AE195E09E
:101390000E94F71B80910801882351F0F30180819E
:1013A00081FF06C064EC70E08AE195E00E94F71BC3
:1013B00080910801882351F0F301808185FF06C0E8
:1013C0006FEB70E08AE195E00E94F71B80910801C5
:1013D000882351F0F301808182FF06C06AEB70E040
:1013E0008AE195E00E94F71B80910801882351F063
:1013F000F301808186FF06C065EB70E08AE195E02D
:101400000E94F71BF80151908F01809151018823B0
:1014100099F080910801813079F48D8D9E8D8E0F29
:101420009F1F298D3A8D2817390731F46FEA70E034
:101430008AE195E00E94F71B3FE0351530F06DEA38
:1014400070E08AE195E00E94F71B40E150E0652DD5
:101450008AE195E00E94231D80910801882351F0C4
:10146000F301808183FF06C068EA70E08AE195E0BD
:101470000E94F71B80910801882351F0F3018081BD
:1014800084FF06C06DE970E08AE195E00E94F71BD9
:10149000FFEF6F1A7F0A69CF62E471E0E7CE69E37C
:1014A00071E0E4CE60E371E0E1CE67E271E0DECEB0
:1014B0006EE171E0DBCE65E171E0D8CE6CE071E009
:1014C000D5CE63E071E0D2CE8C91807E582E6C91A7
:1014D0006F71698FC801880F991F9C8F8B8FD110F6
:1014E0003CC090E4591205C060E28AE195E00E9498
:1014F000231CEB8DFC8DEE53FD4FC080D18080917D
:10150000480190914901C81AD90A23E0D694C7949A
:101510002A95E1F7EAE0CE16D10458F460E28AE1B8
:1015200095E00E94231C60E28AE195E00E94231C62
:1015300004C0F4E6CF16D104B0F34AE050E0B6019F
:101540008AE195E00E943C1D20E4521609F467C32D
:101550006AE38AE195E00E94231CEB8DFC8DEE533B
:10156000FD4F80819181909349018093480130E63D
:10157000531609F440C0351568F05520A1F180E4F8
:10158000581262C060E28AE195E00E94231C65EE79
:1015900070E06EC090EA591631F0E0EC5E1619F07A
:1015A000F0E85F1251C0998D9A3008F046C063E5AB
:1015B000923008F44AC0298D2250330BB9014AE019
:1015C00050E08AE195E00E94EB1C30E6531691F161
:1015D000351508F43FC0552059F080E45816B9F28B
:1015E00061EE70E045C06FE38AE195E00E94231C44
:1015F00061EF70E03DC0298D233138F4233070F461
:1016000063E5213030F460E204C0398D60E53531A6
:10161000D0F78AE195E00E94231C0CC0898D83508D
:10162000990BBC01759567954AE050E08AE195E019
:101630000E94EB1C6BEE70E01BC0E98D60E5EA30A8
:1016400021F065E4EB3009F060E28AE195E00E9468
:10165000231CBBCF90EA6FEF70E0591649F0E0EC25
:101660005E1609F494CFF0E865EF70E05F12B8CF32
:101670008AE195E00E94F71BD12CFCCDB1010E94BC
:10168000D61D4AE050E08AE195E00E943C1D898128
:101690009A81B1010E94D61D9A83898337CE842D09
:1016A0008B7BF9F06FE870E08AE195E00E94F71B10
:1016B0002FE0241528F060E38AE195E00E94231CC6
:1016C00060E38AE195E00E94231C60E38AE195E0F3
:1016D0000E94231C40E150E0642D8AE195E00E94C5
:1016E000231D8AE195E00E942A1CDA82C982842D9A
:1016F0008B7B09F056C2809108018150833030F411
:101700006CE870E08AE195E00E94F71B8091080187
:1017100080FF47C069E870E08AE195E00E94F71B0E
:1017200089819A818031974230F467E870E08AE1DC
:1017300095E00E94F71B89819A81883EE3E09E072D
:1017400008F069C065E870E08AE195E00E94F71B47
:1017500063E870E08AE195E00E94F71B89819A8135
:101760008436910530F461E870E08AE195E00E94EA
:10177000F71B89819A810A9730F46FE770E08AE15C
:1017800095E00E94F71B69817A814AE050E08AE186
:1017900095E00E943C1D6CE770E08AE195E00E94B4
:1017A000F71B80910801843008F0FBC105E911E0C6
:1017B0006701F1E0CF1AD108C801855991408E1513
:1017C0009F05D4F5F80171908F0180915101882314
:1017D00089F080910801813069F48D8D9E8D8E0F86
:1017E0009F1FC816D90631F466E770E08AE195E0DC
:1017F0000E94F71BFFE0F71530F064E770E08AE124
:1018000095E00E94F71B40E150E0672D8AE195E0EA
:101810000E94231DD1CFB1010E94D61D4AE050E0A5
:101820008AE195E00E943C1D89819A81B1010E9464
:10183000D61D9A8389838CCF8AE195E00E942A1C69
:10184000B0C180914D01853008F465C010924D0102
:101850001092D6011092D7018DE08093D80180912B
:101860005201882309F428C19E012F5F3F4F69016F
:10187000CE0109967C018E01055F1F4F2C5F3F4F03
:10188000AE01435F5F4FBE01615F7F4F84EB92E02B
:101890000E94510F8F8598899093D9018093DA0126
:1018A0008D859E859093DB018093DC018D819E81E7
:1018B0002F8138853093DD012093DE019093DF0185
:1018C0008093E0018B859C859093E1018093E201F8
:1018D00089859A859093E3018093E40189819A81B7
:1018E0002B813C813093E5012093E6019093E70141
:1018F0008093E8011092E9011092EA011092EB0145
:101900001092EC0180910801843028F467E186EDA3
:1019100091E00E94C70480914C01853008F440C0DA
:1019200010924C011092D6011092D7018EE0809354
:10193000D801B092D901A092DA019092DB01809295
:10194000DC011092DD018AE78093DE0182E1809361
:10195000DF011092E0018091B2028093E1011092C8
:10196000E2011092E3018091B5028093E4011092AC
:10197000E5011092E6011092E7011092E801109241
:10198000E9011092EA011092EB011092EC018091B2
:101990000801843028F467E186ED91E00E94C704D5
:1019A00080914B01853008F46EC010924B0110926B
:1019B000D6011092D7018FE08093D8018CE18093FB
:1019C000D901E0900801E092DA018091B1028093A0
:1019D000DB011092DC011092DD011092DE01109209
:1019E000DF0180910601909107019093E0018093BF
:1019F000E10180910401909105019093E2018093AF
:101A0000E301809152018093E4011092E50182E0AC
:101A100090E00E9434218093E6011092E70182E178
:101A2000C82E81E0D82E00E110E0FF24F394C80115
:101A30000E943421F60121916F01022E000C330B1C
:101A400091E08217130609F090E0F9220F5F1F4F13
:101A50000931110561F7F092E8018091B30280939A
:101A6000E9018091B7028093EA018091B6028093E8
:101A7000EB011092EC01F3E0FE1528F067E186ED32
:101A800091E00E94C7046E960FB6F894DEBF0FBEB9
:101A9000CDBFDF91CF911F910F91FF90EF90DF901D
:101AA000CF90BF90AF909F908F907F906F905F90FE
:101AB0004F903F902F900895E9EDF1E08DEE91E089
:101AC00011928E179F07E1F71DCF863909F029C8BB
:101AD000F290108280914A010A30110511F40C94A1
:101AE000710581111EC068E274E08AE195E00E94F0
:101AF000F71B67E172E08AE195E00E941B1C6F2DE5
:101B00008AE195E00E94231C4AE050E0B8018AE196
:101B100095E00E94EB1C65E274E08AE195E00E948A
:101B20002E1C81E08093000187E192E090930201F6
:101B3000809301011092530184EB92E00E946B1993
:101B40004B015C018091AD029091AE02A091AF0279
:101B5000B091B00288159905AA05BB05BCF4809127
:101B60004D018F5F80934D0180914C018F5F809379
:101B70004C0180914B018F5F80934B018092AD02AD
:101B80009092AE02A092AF02B092B00285E991E0CD
:101B90009C01209530953E8F2D8F68EE262E63E0B8
:101BA000362E84EB92E00E946D18D82E882309F41B
:101BB00048CEC0905001E090510101E424E531E0AD
:101BC000AE014F5F5F4F65E971E084EB92E00E94E8
:101BD0009F187C01412C8234910594F06AE571E0F4
:101BE0008AE195E00E942E1C8091B5028F3F19F08A
:101BF0008F5F8093B50251E4E52EF12C44244A9482
:101C000044E5642E41E0742EF301CF0184559140E8
:101C10008E159F050CF0B9CA8191482AF6CFEB8D3D
:101C2000FC8DEE53FD4F808191819093490180930B
:101C30004801A8CC1F920F920FB60F921124CF9299
:101C4000DF92EF92FF922F933F934F935F936F93A7
:101C50007F938F939F93AF93BF9380917800209150
:101C6000790030E0322F2227820F932F911DB0E0B0
:101C7000A0E020910D01222309F493C010920D01E0
:101C80002091170520937C002091090530910A05C9
:101C90002F5F3F4F30930A052093090540910305BC
:101CA000509104056091050570910605840F951FFC
:101CB000A61FB71F8093030590930405A093050505
:101CC000B0930605A901542F44275295507F452B08
:101CD00009F051C04091FF04509100056091010549
:101CE00070910205480F591F6A1F7B1F4093FF0424
:101CF000509300056093010570930205C090100198
:101D0000D0901101F12CE12C8C159D05AE05BF057D
:101D100020F49093110180931001C0901505D0908C
:101D20001605F12CE12CC816D906EA06FB0620F4AC
:101D300090931605809315051092030510920405E3
:101D40001092050510920605A4E0220F331FAA95F4
:101D5000E1F7232B81F44093110550931205609312
:101D60001305709314051092FF0410920005109251
:101D70000105109202058EED80937A00BF91AF911C
:101D80009F918F917F916F915F914F913F912F9193
:101D9000FF90EF90DF90CF900F900FBE0F901F90AD
:101DA000189521E020930D012091180520937C00C7
:101DB00020910705309108052F5F3F4F30930805AC
:101DC000209307054091FB045091FC046091FD04B1
:101DD0007091FE04840F951FA61FB71F8093FB040C
:101DE0009093FC04A093FD04B093FE04A901542F2A
:101DF00044275295507F452B09F0BDCF4091F70401
:101E00005091F8046091F9047091FA04480F591F39
:101E10006A1F7B1F4093F7045093F8046093F90402
:101E20007093FA04C0900E01D0900F01F12CE12CB8
:101E30008C159D05AE05BF0520F490930F0180938E
:101E40000E01C0900F05D0901005F12CE12CC816A2
:101E5000D906EA06FB0620F49093100580930F053F
:101E60001092FB041092FC041092FD041092FE04E8
:101E700084E0220F331F8A95E1F7232B09F07BCFF3
:101E800040930B0550930C0560930D0570930E0560
:101E90001092F7041092F8041092F9041092FA04C8
:101EA0006ACFCF92DF92EF92FF920F931F938091B0
:101EB0001905882309F44EC086E880937A00809142
:101EC000100190911101FB01918380838091150590
:101ED00090911605FA01918380838091110590916C
:101EE0001205A0911305B0911405F9018083918327
:101EF000A283B38380910E0190910F01F801918329
:101F0000808380910F0590911005F7019183808364
:101F100080910B0590910C05A0910D05B0910E05D7
:101F2000F60180839183A283B38380EF9FE3909334
:101F300011018093100110921605109215059093CF
:101F40000F0180930E011092100510920F058EE87C
:101F500080937A001F910F91FF90EF90DF90CF90C8
:101F60000895CF92DF92EF92FF920F93CF93DF937A
:101F70006B017C01D42FC22F969587957795679535
:101F80007E5E85489F4FA70196010E94EA1D30930F
:101F9000F6042093F504B90176956795CB01820F7D
:101FA000931F9093F4048093F304C901F3E0969592
:101FB0008795FA95E1F7860F971F9093F204809327
:101FC000F10456954795379527953093F004209363
:101FD000EF04C901880F991F280F391F3093EE04B1
:101FE0002093ED0461E082E00E949D1961E086E0AB
:101FF0000E949D1961E085E00E949D1961E083E0E7
:102000000E949D19429A5E9A5D9A5B9A62E088E00E
:102010000E949D1961E089E00E94D91961E089E080
:102020000E949D1910921503109214031092EC0453
:102030001092E7048FEF8093E6041092E50410926B
:10204000E0031092DF031092DA031092D90310928A
:1020500013031092120382E084BD94E095BD99EFC2
:1020600097BD10920D0310920E0310920F03109261
:1020700010031092090310920A0310920B0310929E
:102080000C0316BC21E023BD85BB80936E008093BA
:10209000B00023E02093B1009093B30083BD109271
:1020A000B200109215031092140387BB8093700046
:1020B00010926F001092800081E8809381008091DF
:1020C00081008F7B8093810080918000806C809361
:1020D00080008091820080688093820080E286BBCD
:1020E00080916F00806280936F00D0931905DD238B
:1020F00001F18C2F806C80931805802F806C809369
:10210000170521E030E0C90101C0880FCA95EAF740
:1021100001C0220F0A95EAF7822B8F7380937E000D
:102120008091180580937C0010927B008EED809347
:102130007A00DF91CF910F91FF90EF90DF90CF90D9
:1021400008951F920F920FB60F9211248F939F93B1
:10215000AF93BF938091090390910A03A0910B0361
:10216000B0910C030896A11DB11D809309039093B3
:102170000A03A0930B03B0930C03809111038F5FAC
:10218000809311038D37A8F01092110380910D03F5
:1021900090910E03A0910F03B09110030196A11D21
:1021A000B11D80930D0390930E03A0930F03B09382
:1021B0001003BF91AF919F918F910F900FBE0F9021
:1021C0001F9018951F920F920FB60F9211242F9304
:1021D0003F938F939F9380911403909115030196E1
:1021E00049F0809114039091150301969093150383
:1021F000809314038091E003833609F06BC0209133
:102200001403309115038091120390911303281742
:102210003907C1F020911403309115038091120306
:10222000909113032817390708F454C02091140320
:102230003091150380910B0190910C0128173907FB
:1022400008F448C081E08093E0032091ED043091D0
:10225000EE0480910703882321F08091060391E02A
:10226000811190E09093080380910803882351F036
:1022700081E0809306031092C10280EF80930303F4
:102280001092050390916F009F7D90936F00909145
:102290006F009B7F90936F0010927000809184007C
:1022A00090918500820F931F9093890080938800FE
:1022B000809180008F7B8068809380008091810076
:1022C0008F7B80938100B19A80916F0082608093B0
:1022D0006F005D9A9F918F913F912F910F900FBE4C
:1022E0000F901F9018958230910510F482E090E0D5
:1022F0009093C0028093BF02089590930C01809345
:102300000B0108952091D9039091DA0381E02913FC
:1023100080E008959091DA039F5F913408F090E097
:102320002091D9032917E1F36FB7F8942091E003C6
:102330004091BF025091C0022223A9F0292F30E022
:10234000F901E856FC4F8083220F331FF901EA5E42
:10235000FC4F518340831092C0021092BF029093B1
:10236000DA036FBF08958093DE038093DC0310923D
:10237000DB031092BE021092BD0283E68093E0035D
:1023800050931303409312031092C0021092BF02A5
:10239000E8CF1F920F920FB60F9211242F933F9305
:1023A0004F935F936F937F938F939F93EF93FF93DD
:1023B0008091E003409184005091850060918800F5
:1023C00070918900843108F0AFC12091EF04309101
:1023D000F004260F371F309389002093880093B1B3
:1023E000917080FFE8C020918000206C20938000D5
:1023F00020918100206420938100813009F05EC02B
:1024000020911403309115033093BC022093BB023A
:1024100010927000911192C01092BD0293B1917010
:10242000B59B59C1209186003091870040E246BBA0
:10243000992309F432C190910803992359F190919D
:102440000403911104C090910503911123C0E09100
:10245000C102F0E0EE0FFF1FEE53FD4F31832083EA
:10246000E091C102F0E0E251FD4F982F9066908319
:102470009091C1029F5F9093C102963111F4109226
:10248000C10290910503992329F090910403915082
:10249000909304038093DF038F5F8093E003FF91A9
:1024A000EF919F918F917F916F915F914F913F91AC
:1024B0002F910F900FBE0F901F901895833169F4E4
:1024C00022E023BD1092B20061E070E0709315032A
:1024D0006093140327BB209370002091DD0329171C
:1024E00009F49CCF9091BD0292609093BD029091AF
:1024F0000803992309F492CF90910403911104C029
:102500009091050391118ACF90910503911106C016
:1025100091E0909305039BE090930403E091C10246
:10252000F0E0EE0FFF1FEE53FD4F51834083E0912B
:10253000C102F0E0E251FD4F9CEF28C08093BD0244
:1025400090910803992309F469CF909104039111A4
:1025500004C090910503911161CF909105039111F1
:1025600006C091E0909305039BE090930403E091F3
:10257000C102F0E0EE0FFF1FEE53FD4F5183408389
:10258000E091C102F0E0E251FD4F9FEF9083909106
:10259000C1029F5F9093C102963111F41092C10263
:1025A00090910503992309F439CF90910403915038
:1025B0009093040333CF823108F05FC02091DE0393
:1025C000622F617020FD0BC0209180002F7B20685E
:1025D00020938000209181002F7B20938100209107
:1025E000DB0326272093DB032091DE0330E03595C3
:1025F00027952093DE0391113DC09091BD0290621A
:102600009093BD02909108039923A1F19091040346
:10261000911104C09091050391112CC09091050374
:10262000911106C091E0909305039BE09093040301
:10263000E091C102F0E0EE0FFF1FEE53FD4F51831A
:102640004083E091C102F0E0E251FD4F9EEF9083A4
:102650009091C1029F5F9093C102963111F4109244
:10266000C10290910503992329F0909104039150A0
:10267000909304036093DD03D1CE6091DB0361117D
:10268000BACF209180002F7B20682093800020917A
:1026900081002F7B20938100AECF90910803992376
:1026A00009F4F8CE90910403911104C090910503B0
:1026B0009111F0CEE091C102F0E0EE0FFF1FEE535A
:1026C000FD4F31832083E091C102F0E0E251FD4FE4
:1026D000982F9064CCCE9111DDCE90910803992370
:1026E00009F4D8CE90910403911104C09091050390
:1026F0009111D0CE90910503911106C091E0909375
:1027000005039BE090930403E091C102F0E0EE0F1B
:10271000FF1FEE53FD4F51834083E091C102F0E073
:10272000E251FD4F97EFA3CE93B19170B59BC3C01B
:10273000409186005091870030E236BB992309F41E
:10274000A2C090910803992351F190910403911133
:1027500004C090910503911122C0E091C102F0E004
:10276000EE0FFF1FEE53FD4F518340838066E091D3
:10277000C102F0E0E251FD4F80838091C1028F5F82
:102780008093C102863111F41092C1028091050339
:10279000882329F080910403815080930403809161
:1027A000BD02882329F05B9A8091DA038093D903D4
:1027B00080910A01882339F1E091E70421E02E0F8E
:1027C000213408F020E08091E504821709F49CC0D0
:1027D000822F90E03091DC03FC01EC55FB4F3083FD
:1027E0004091BB025091BC02FC01EE0FFF1FEF5164
:1027F000FC4F518340833091BD028D599B4FFC01AA
:1028000030832093E7049091DA038091D9039817DD
:1028100009F4A6C08F5F813408F080E08093D9036B
:1028200090E0FC01E856FC4F30813093DE0330939A
:10283000DC03880F991FFC01EA5EFC4F80819181C7
:102840001092BE021092DB038230910508F067C03F
:1028500080918800909189002091ED043091EE04E0
:10286000820F931F9093890080938800809180004D
:102870008F7B806880938000809181008F7B809324
:10288000810081E00ACE90910803992309F487CF53
:1028900090910403911104C09091050391117FCF91
:1028A000E091C102F0E0EE0FFF1FEE53FD4F5183A8
:1028B000408380645CCF911172CF8091080388239C
:1028C00009F46DCF80910403811104C08091050348
:1028D000811165CF80910503811106C081E080934D
:1028E00005038BE080930403E091C102F0E0EE0F5A
:1028F000FF1FEE53FD4F51834083E091C102F0E092
:10290000E251FD4F87EF38CF2091E704E22FF0E04E
:10291000ED59FB4F8081886080835B9A74CF33E6EA
:102920003093E003909313038093120380916F0020
:102930008D7F80936F00809181008F7B80938100D9
:1029400080E286BB80916F00806280936F00E22FEF
:10295000F0E0ED59FB4F8081806880835D989FCDCA
:102960001092E003E3CF8091E0038111FCCF089542
:1029700080930703089580930901089580930A01C5
:1029800008951F920F920FB60F9211242F933F9329
:102990004F935F936F937F938F939F93AF93BF9367
:1029A000EF93FF93209186003091870080918400FF
:1029B000909185008091EC0481115EC15E9A5D98D2
:1029C0005B9890E49093B8029091E6049F3F39F0B1
:1029D0009091E6049093E7049FEF9093E604409172
:1029E0001403509115035093BC024093BB02109204
:1029F00070004091F3045091F404420F531F509320
:102A0000E9044093E80492E09093EC041092EA0405
:102A100050938B0040938A0094E096BB90916F0096
:102A2000946090936F0081113FC1909106039111C2
:102A30003BC1909107039093080390910803992359
:102A400009F432C191E0909306031092C10290EF15
:102A5000909303031092050327C1909108039923D3
:102A600051F190910403911104C0909105039111CB
:102A700022C0E091C102F0E0EE0FFF1FEE53FD4FC8
:102A800031832083806AE091C102F0E0E251FD4F82
:102A900080838091C1028F5F8093C102863111F4DF
:102AA0001092C10280910503882329F080910403CC
:102AB000815080930403FF91EF91BF91AF919F915B
:102AC0008F917F916F915F914F913F912F910F90D7
:102AD0000FBE0F901F9018958B3009F4A5C008F415
:102AE00082C08C3009F0E0C04091090150E04F5F96
:102AF0005F4FE091F504F091F6044E9FB0014F9FB7
:102B0000700D5E9F700D11244091E8045091E9040E
:102B1000460F571F50938B0040938A0094E096BB5A
:102B200091E09093EC049091E7049F5F913408F05A
:102B300090E04091E504491709F492C0E92FF0E0D4
:102B4000DF01AC55BB4F4FEF4C934091BB0250910E
:102B5000BC02DF01AA0FBB1FAF51BC4F11965C93A3
:102B60004E934091B802ED59FB4F4083442319F036
:102B70004081446040834091EA04442309F46EC0DC
:102B80005B9A9093E6041092B80292E093BD109283
:102B9000B20041E050E0509315034093140397BBFB
:102BA0009093700081C04091EB0450E0559547959B
:102BB0004093EB044091E8045091E9046091F504DE
:102BC0007091F604460F571F5093E9044093E804B0
:102BD00050938B0040938A0094E096BB91E0980F4D
:102BE0009093EC0461C09091B802992339F0409120
:102BF000EB0450E0559547954093EB044091E80471
:102C00005091E9046091F5047091F604460F571F46
:102C10005093E9044093E80450938B0040938A005A
:102C200094E096BB9BE0DCCF1092B8024091F50493
:102C30005091F604440F551F6091E8047091E90427
:102C4000460F571F5093E9044093E80450938B00BC
:102C500040938A0094E096BB9CE0C2CF5B9891CFF2
:102C6000E091E704F0E0ED59FB4F9081986090838C
:102C70005B9A9091E70485CF4091B9025091BA02D6
:102C8000B901641B750B4091F1045091F204641773
:102C9000750708F4E2CE8A3008F01ECF823008F0C3
:102CA00082CF813009F48DCE90910803992351F1A0
:102CB00090910403911104C090910503911122C0D9
:102CC000E091C102F0E0EE0FFF1FEE53FD4F3183A4
:102CD0002083806CE091C102F0E0E251FD4F8083DF
:102CE0008091C1028F5F8093C102863111F41092EE
:102CF000C10280910503882329F08091040381504B
:102D0000809304033093BA022093B902D4CE1F9269
:102D10000F920FB60F9211242F933F934F935F930F
:102D20006F937F938F939F93AF93BF93CF93DF93D3
:102D3000EF93FF9340918A0050918B002091840083
:102D4000309185006091EC04EFEFE60FEC3008F075
:102D500062C0F0E0E255F94E0C940C1EBA16E8166B
:102D6000EA16EA16EA16EA16EA16EA16EA163B1711
:102D70006617FF1780916F008B7F80936F00109212
:102D8000EC048091E6048F3F79F08091E604809313
:102D9000E704E091E704F0E0ED59FB4F80818068A3
:102DA00080838FEF8093E6045E98FF91EF91DF912F
:102DB000CF91BF91AF919F918F917F916F915F91D3
:102DC0004F913F912F910F900FBE0F901F9018952C
:102DD0001092B8028091EB04869580688093EB0492
:102DE0008091EA0480588093EA0481E0860F809302
:102DF000EC048091E8049091E9044091F50450912D
:102E0000F604840F951F9093E9048093E80490934F
:102E10008B0080938A0080910803882331F280918F
:102E20000403811104C0809105038111BECFE0919C
:102E3000C102F0E0EE0FFF1FEE53FD4F3183208300
:102E40006068E091C102F0E0E251FD4F6083809143
:102E5000C1028F5F8093C102863111F41092C102CA
:102E600080910503882309F4A0CF80910403815049
:102E7000809304039ACF8091B802882331F0809127
:102E8000EB04869580688093EB044091EA0480E827
:102E9000840F8093EA048BE08093EC048091E80433
:102EA0009091E904E091F504F091F6048E0F9F1FD4
:102EB0009093E9048093E80490938B0080938A00B8
:102EC000403811F05B9AA7CF5B98A5CF8091B802EC
:102ED000882309F494C08091EA04882309F48AC005
:102EE00080588093EA0480E0E091090171E087272F
:102EF00090E00196E80FF92FF11DA091F504B09133
:102F0000F604EA9FC001EB9F900DFA9F900D1124EB
:102F1000E091E804F091E9048E0F9F1F90938B00DD
:102F200080938A007093EC048091E7048F5F813472
:102F300008F080E09091E504981709F462C0E82F4A
:102F4000F0E09091EB04DF01AC55BB4F9C93C09136
:102F5000BB02D091BC02DF01AA0FBB1FAF51BC4F17
:102F60001196DC93CE939091B802ED59FB4F90836C
:102F70009091EA04992309F461C090819460908350
:102F8000909108039923A1F190910403911104C039
:102F90009091050391112CC090910503911106C0E9
:102FA00091E0909305039BE090930403E091C102AC
:102FB000F0E0EE0FFF1FEE53FD4F51834083E09191
:102FC000C102F0E0E251FD4F9DEF90839091C1026C
:102FD0009F5F9093C102963111F41092C1029091BB
:102FE0000503992329F090910403915090930403D1
:102FF0005B9A12C08091EB04880F8093EB0481E010
:1030000073CFE091E704F0E0ED59FB4F80818860D9
:1030100080835B9A8091E7048093E6041092B80263
:1030200082E083BD1092B20041E050E0509315035E
:103030004093140387BB80937000EDCE5B98ECCF78
:103040008091E704E091E5048E1761F0EF5FE134D1
:1030500008F0E0E0F0E0EE0FFF1FEF51FC4F808141
:103060009181089590E080E008958091E704E091D7
:10307000E5048E1749F0EF5FE13408F0E0E0F0E09E
:10308000ED59FB4F8081089580E008958091E70419
:103090009091E504891761F09F5F913408F090E00A
:1030A000E92FF0E0EC55FB4F80819093E504089503
:1030B00080E008952091E7049091E504291728F015
:1030C00081E0291309C080E007C030E02F5B3F4F4B
:1030D00081E092171306B9F308952091E7048091D7
:1030E000E504821769F08F5F813408F080E0E82FF3
:1030F000F0E0ED59FB4F908197FFF3CF81E0089509
:1031000080E008958091E5048093E7040895CF93CB
:10311000DF93CFE6D0E088818B7F888388818F7DA5
:1031200088830E9482180E94B31488818D7F8883CF
:103130001092700010926E00DF91CF9108952F923F
:103140003F924F925F926F927F928F929F92AF9237
:10315000BF92CF92EF920F931F93CF93DF935C01B7
:103160003B012A0149011FEFC0E0202F2150330B02
:103170001401220E331EC11708F056C0C5010E946B
:103180005A188823C1F3C5010E943518D82F81141D
:10319000910441F0982F9F77C01728F5F401EC0FA8
:1031A000F11D9083C11106C0C5010E942018F201D3
:1031B00091838083C5010E944618D7FF19C0EE2075
:1031C00009F447C0C01748F5EC2FF0E0D301AE0F6B
:1031D000BF1F8C938C1509F1E80DF91D808180616A
:1031E00080835B9A1AC0F1018081892B8083DACFBA
:1031F000C01720F4F301EC0FF11D8083EE2069F07D
:1032000098E02C2D30E035952795C826C0FE1FC0CC
:10321000CE2CC22686959150A1F7CF5FC33011F412
:10322000F3011281D7FFA7CF8C2F90E0DF91CF91D0
:103230001F910F91EF90CF90BF90AF909F908F9084
:103240007F906F905F904F903F902F900895C22E87
:10325000E1CFC01778F2E1CFCF92DF92EF920F93D8
:103260001F93CF93DF93D62E172FC42EC9010E9430
:103270007311CD2DD12FCC0EDD2ED11CCC16DD0639
:10328000B1F01991812F0E948A110023B9F328E02F
:103290008E2D90E095958795E126E0FE06C0E02E04
:1032A000E82616952150A1F7E9CFE82EFACF0023A2
:1032B00051F08E2DDF91CF911F910F91EF90DF9004
:1032C000CF900C948A11DF91CF911F910F91EF90C5
:1032D000DF90CF90089560910D0370910E0380915F
:1032E0000F03909110030895843081F028F4823008
:1032F000E9F08330F9F00895883071F0893091F069
:103300008530B9F4809180008F7D03C0809180006A
:103310008F778093800008958091B0008F7780939D
:10332000B00008958091B0008F7DF9CF84B58F777C
:1033300084BD089584B58F7DFBCFCF93DF9390E05C
:10334000FC01E154FA4F24918A529A4FFC01849176
:103350008823C9F090E0880F991FFC01E950FA4FCB
:10336000A591B491FC01E351FA4FC591D49161113B
:103370000DC09FB7F8948C91209582238C938881FF
:10338000282328839FBFDF91CF910895623051F4A5
:103390009FB7F8943C91822F809583238C93E8818A
:1033A0002E2BEFCF8FB7F894EC912E2B2C938FBF51
:1033B000EACF1F93CF93DF93282F30E0F901E85530
:1033C000FA4F8491F901E154FA4FD491F901EA528C
:1033D000FA4FC491CC23A9F0162F81110E947419C1
:1033E000EC2FF0E0EE0FFF1FE351FA4FA591B491DF
:1033F0008FB7F894EC91111108C0D095DE23DC93BF
:103400008FBFDF91CF911F910895DE2BF8CFFC0184
:10341000918D228D892F90E0805C9F4F821B9109B6
:103420008F7399270895FC01918D828D981731F043
:10343000828DE80FF11D858D90E008958FEF9FEF4D
:103440000895FC01918D828D981761F0A28DAE0FC9
:10345000BF2FB11D5D968C91928D9F5F9F73928F50
:1034600090E008958FEF9FEF0895FC01538D448DF8
:10347000252F30E0842F90E0821B930B541710F01F
:10348000CF9608950197089584E89BE1892B49F030
:1034900080E090E0892B29F00E94841B81110C941C
:1034A00000000895FC01A48DA80FB92FB11DA35AE7
:1034B000BF4F2C91848D90E001968F739927848F54
:1034C000A689B7892C93A089B1898C9180648C934B
:1034D000938D848D981306C00288F389E02D808136
:1034E0008F7D80830895CF93DF93EC01888D8823AF
:1034F000B9F0AA89BB89E889F9898C9185FD03C057
:10350000808186FD0DC00FB607FCF7CF8C9185FF3B
:10351000F2CF808185FFEDCFCE010E94521AE9CF14
:10352000DF91CF910895EF92FF920F931F93CF9366
:10353000DF93EC0181E0888F9B8D8C8D981316C0F2
:10354000E889F989808185FF11C0EE89FF89608350
:10355000E889F98980818064808381E090E0DF914F
:10356000CF911F910F91FF90EF900895F62E0B8D44
:1035700010E00F5F1F4F0F731127E02E8C8D8E11FF
:103580000CC00FB607FCFACFE889F989808185FF66
:10359000F5CFCE010E94521AF1CFEB8DEC0FFD2F2B
:1035A000F11DE35AFF4FF0820B8FEA89FB8980817E
:1035B0008062D2CFCF92DF92EF92FF921F93CF9390
:1035C000DF93EC016A017B01122F60E874E88EE161
:1035D00090E0A70196010E94EA1D2150310941099E
:1035E00051095695479537952795E889F98982E0DD
:1035F0008083211580E1380798F0E889F9891082E5
:1036000060E472E48FE090E0A70196010E94EA1D59
:10361000215031094109510956954795379527950C
:10362000EC85FD853083EE85FF852083188EEC893F
:10363000FD891083EA89FB89808188698083EA8912
:10364000FB8980818F7D8083DF91CF911F91FF90D7
:10365000EF90DF90CF9008951F920F920FB60F92C8
:1036600011242F938F939F93EF93FF93E0912A055B
:10367000F0912B058081E0913005F091310582FDBC
:103680001BC09081809133058F5F8F73209134052B
:10369000821741F0E0913305F0E0E65EFA4F958F36
:1036A00080933305FF91EF919F918F912F910F9010
:1036B0000FBE0F901F9018958081F4CF1F920F922C
:1036C0000FB60F9211242F933F934F935F936F93F5
:1036D0007F938F939F93AF93BF93EF93FF938AE171
:1036E00095E00E94521AFF91EF91BF91AF919F9187
:1036F0008F917F916F915F914F913F912F910F909B
:103700000FBE0F901F9018958AE195E00E94071A4E
:1037100021E0892B09F420E0822F0895EAE1F5E009
:103720001382128288EE93E0A0E0B0E08483958358
:10373000A683B78386E391E09183808385EC90E054
:103740009587848784EC90E09787868780EC90E06B
:10375000918B808B81EC90E0938B828B82EC90E05C
:10376000958B848B86EC90E0978B868B118E128ED6
:10377000138E148E0895AF92BF92CF92DF92EF9284
:10378000FF920F931F93CF93DF936C017B018B010B
:10379000040F151FEB015E01AE18BF08C017D1075B
:1037A00059F06991D601ED91FC910190F081E02DE5
:1037B000C6010995892B79F7C501DF91CF911F913A
:1037C0000F91FF90EF90DF90CF90BF90AF90089552
:1037D000FB0101900020E9F73197AF01461B570B21
:1037E000DC01ED91FC910280F381E02D0994EF92D0
:1037F000FF920F931F93CF93DF938C017B01D0E057
:10380000C0E0F701EC0FFD1F6491662361F0D80161
:10381000ED91FC910190F081E02DC8010995892B73
:1038200011F02196EECFCE01DF91CF911F910F9134
:10383000FF90EF9008956115710511F00C94E81B4D
:1038400090E080E00895DC01ED91FC910190F08121
:10385000E02D099464E471E00C94E81B0F931F932E
:10386000CF93DF93EC010E94F71B8C01CE010E94E5
:103870002A1C800F911FDF91CF911F910F91089506
:103880000F931F93CF93DF938C01D0E0C0E06115BD
:10389000710519F00E94E81BEC01C8010E942A1C66
:1038A0008C0F9D1FDF91CF911F910F9108958F92E3
:1038B0009F92AF92BF92EF92FF920F931F93CF937D
:1038C000DF93CDB7DEB7A1970FB6F894DEBF0FBE7A
:1038D000CDBF7C01FA01CB0119A2223008F42AE005
:1038E0008E010F5D1F4F822E912CB12CA12CBF0198
:1038F000A50194010E94EA1DF901CA016A300CF584
:10390000605DD8016E938D01232B242B252B79F735
:1039100090E080E0109721F0BD01C7010E94E81BF4
:10392000A1960FB6F894DEBF0FBECDBFDF91CF9149
:103930001F910F91FF90EF90BF90AF909F908F904D
:103940000895695CDECFCF92DF92EF92FF920F93E2
:103950001F93CF93DF932115310581F4DC01ED91A5
:10396000FC910190F081E02D642FDF91CF911F91A8
:103970000F91FF90EF90DF90CF9009942A3031059E
:1039800001F52AE077FF1DC06A017B01EC016DE2C1
:103990000E94231C8C0144275527BA014C195D094C
:1039A0006E097F092AE0CE010E94571C800F911FEB
:1039B000DF91CF911F910F91FF90EF90DF90CF900B
:1039C0000895DF91CF911F910F91FF90EF90DF90BD
:1039D000CF900C94571C9A01AB01770F660B770BB5
:1039E0000C94A31C0F931F93CF93DF93EC010E94C1
:1039F000EB1C8C01CE010E942A1C800F911FDF91CD
:103A0000CF911F910F9108950F931F93CF93DF9341
:103A1000EC010E94A31C8C01CE010E942A1C800F85
:103A2000911FDF91CF911F910F91089521153105BD
:103A300041F4DC01ED91FC910190F081E02D642FC7
:103A400009940C94571C9A01462F50E070E060E0F6
:103A50000C94161D0F931F93CF93DF93EC010E94DC
:103A6000231D8C01CE010E942A1C800F911FDF9123
:103A7000CF911F910F9108959A01AB0170E060E022
:103A80000C94161D0F931F93CF93DF93EC010E94AC
:103A90003C1D8C01CE010E942A1C800F911FDF91DA
:103AA000CF911F910F91089508950E94AE1D0E941D
:103AB000541D0E94C403C4E4DAE10E943305209738
:103AC000E1F30E94441AF9CF1F920F920FB60F92A2
:103AD00011242F933F938F939F93AF93BF93809124
:103AE000BC059091BD05A091BE05B091BF05309178
:103AF000BB0526E0230F2D3768F129E8230F039635
:103B0000A11DB11D2093BB058093BC059093BD05FD
:103B1000A093BE05B093BF058091B7059091B805FD
:103B2000A091B905B091BA050196A11DB11D809370
:103B3000B7059093B805A093B905B093BA05BF91A6
:103B4000AF919F918F913F912F910F900FBE0F904A
:103B50001F9018950296A11DB11DD4CF789484B5FD
:103B6000836084BD85B5836085BDEEE6F0E080812D
:103B700081608083E1E8F0E082E080838081816081
:103B80008083E0E8F0E0808181608083E1EBF0E019
:103B9000808184608083E0EBF0E0808181608083BD
:103BA00086E880937A001092C1000895AA1BBB1B7F
:103BB00051E107C0AA1FBB1FA617B70710F0A61B2D
:103BC000B70B881F991F5A95A9F780959095BC014E
:103BD000CD010895A1E21A2EAA1BBB1BFD010DC049
:103BE000AA1FBB1FEE1FFF1FA217B307E407F507AD
:103BF00020F0A21BB30BE40BF50B661F771F881F89
:103C0000991F1A9469F760957095809590959B011E
:103C1000AC01BD01CF010895EE0FFF1F0590F49197
:103C2000E02D0994FB01DC014150504030F08D91B2
:103C30000190801919F40020B9F7881B990B089599
:103C4000AEE0B0E0E6E2FEE10C945A2185E08C8320
:103C50008B899C899A838983AE01495E5F4F6D8908
:103C60007E89CE0101960E94C41F2E96E2E00C943C
:103C7000762120FD09C0FC0123FD05C022FF02C002
:103C80007383628351834083089544FD17C046FDCA
:103C90001DC0DB01FC01AA0FBB1FEE1FFF1F10940C
:103CA000D1F76A0F7B1F8E1F9F1F660F771F881F1C
:103CB000991F620F711D811D911D089533E0660FDC
:103CC000771F881F991F3150D1F7F3CF34E0F7CF1A
:103CD0000F931F93CF93DF938C01C8010E94DD20C7
:103CE000EC0197FD08C00E94C920892BB1F7B801EB
:103CF000CE010E941921CE01DF91CF911F910F912A
:103D000008958F929F92AF92BF92EF92FF920F937E
:103D10001F93CF93DF938C01D62F7A01B22E0E948E
:103D2000DD209C0133272B32310529F02D3231055E
:103D3000A9F46894B7F8D15061F480E0DF91CF9195
:103D40001F910F91FF90EF90BF90AF909F908F9039
:103D50000895C8010E94DD2097FDEFCFCB2DCD7FC8
:103D60002B2D2073F9F48033E9F4AA24AA94AD0E24
:103D700089F0C8010E94DD2097FD0CC0282F2F7DFF
:103D8000283561F4C264D25029F0C8010E94DD20B8
:103D900097FF08C0812C912C54011BC0B6FE2BC08C
:103DA000C260DA2D812C912C540120ED280F28308F
:103DB00028F1C4FD09C02A3008F1C6FF05C02F7DD7
:103DC0003FEE320F3630C8F0B8010E941921C1FF12
:103DD000B4CFC7FF08C0B094A09490948094811C85
:103DE000911CA11CB11C2C2FB501A401C7010E947C
:103DF000391E81E0A3CFC261D4CF27504C2FC5011B
:103E0000B4010E94451E4B015C01C260D15009F310
:103E1000C8010E94DD2097FFC8CFD9CFA0E2B0E053
:103E2000E4E1FFE10C944F215C01962E7A01CE0172
:103E300001966C0180E2F60111928A95E9F7F5018D
:103E4000B381890130E020E0712C812CA0E041E0B9
:103E500050E0F801B3FD8591B3FF8191982F8F0158
:103E6000811107C010E000E0C801A096EDE00C94BD
:103E70006B218E3519F42115310541F1A217130676
:103E80004CF48D3549F18D3229F4811006C0882417
:103E900083941DC0882009F464C0E92FE695E69557
:103EA000E695EC0DFD2DF11D892F8770BA0101C03B
:103EB000660F8A95EAF78081682B6083791651F046
:103EC000971510F49F5FE9CF9150E7CFA1E02F5FE6
:103ED0003F4FBFCF812CFBCF882019F08E818062AD
:103EE0008E83AA2359F0F6019E012F5D3F4F8081FA
:103EF000809580833196E217F307C9F7882483946D
:103F0000C5010E94DD2097FD16C0E82FE695E695D5
:103F1000E695EC0DFD2DF11D208130E0AC014770E0
:103F2000552702C0359527954A95E2F720FD06C032
:103F3000B5010E941921882069F094CFE114F104A1
:103F400029F0F7018083C70101967C019A94812CA6
:103F50009110D6CFE114F10409F486CFF701108255
:103F600083CFE82FE695E695E695EC0DFD2DF11D46
:103F7000982F9770BA0101C0660F9A95EAF7908161
:103F8000692B6083782EA3CFB0E0A0E0EAECFFE1DC
:103F90000C944D216C01EB015A01FC011782168231
:103FA000512CF601E380FE01E3FC8591E3FE819153
:103FB000182FEF018823E9F090E00E94C920892B97
:103FC00021F0C6010E94681EECCF153241F4FE01BB
:103FD000E3FC1591E3FE1191EF01153269F4C6017E
:103FE0000E94DD2097FD8EC01817D9F2B6010E94FD
:103FF0001921852D90E08AC000E01A3231F4E3FCEB
:104000001591E3FE1191EF0101E0F12C20ED210F5C
:104010002A3048F101FF37C0FF2059F31836B1F1BB
:104020001C3609F43DC0112321F3612F70E088E6AE
:1040300090E00E94D220892BE1F2912C812C00FD8E
:1040400006C0F50180809180C50102965C011E3694
:1040500079F5F6014681578170E060E0202FC401B8
:104060000E94391E9ECF02606F2D70E090E080E0CC
:1040700040E20E94451EF62EFE01E3FC1591E3FE90
:104080001191EF01C3CFFF24FA94C8CFFE01E3FCE6
:104090001591E3FE1191EF01183609F0C4CF0860C5
:1040A0000460FE01E3FC1591E3FE1191EF01BBCF2B
:1040B0001336C1F401FD02C0FF24F394C6010E942F
:1040C000DD2097FD1FC08114910429F0F401808345
:1040D000C40101964C01FA94F110F0CF00FD61CFBC
:1040E00053945FCF1B35B9F49E01A4016F2DC60117
:1040F0000E940E1FEC01892B89F7F60183818073E2
:1041000009F477CF8FEF9FEF511073CFCDB7DEB7A4
:10411000EFE00C946921C6010E94681E97FDF2CF62
:104120001F36A9F130F4143641F0193639F0006425
:1041300005C01337B9F01537D1F70062202FA4015D
:104140006F2DC6010E94811E8111C8CFD6CF811468
:10415000910429F0F4016082C40101964C01FA94A3
:10416000FF2071F0C6010E94DD203C0197FD08C0D0
:104170000E94C920892B59F3B601C3010E9419215D
:104180008114910409F4AACFF4011082A7CF006131
:10419000D5CF91110C943121803219F0895085507E
:1041A000C8F70895FC010590061621F00020D9F704
:1041B000C00108953197CF010895CF93DF93EC01AB
:1041C0002B8120FF1AC026FF0CC02F7B2B838E81F2
:1041D0009F8101969F838E838A8190E0DF91CF91AA
:1041E000089522FF18C0E881F9818081082E000C13
:1041F000990B009729F420622B838FEF9FEFEECF6E
:104200003196F983E8832E813F812F5F3F4F3F83B3
:104210002E839927E3CFEA85FB85099597FFF3CF96
:104220002B81019621F080E2822B8B83E6CF80E107
:10423000FBCFFB01238120FF11C026FD0FC08F3F64
:10424000980771F082832F7D206423832681378134
:104250002150310937832683992708958FEF9FEFE7
:104260000895992788270895F999FECF92BD81BDB9
:10427000F89A992780B50895262FF999FECF1FBA8D
:1042800092BD81BD20BD0FB6F894FA9AF99A0FBE7F
:10429000019608952F923F924F925F926F927F9274
:1042A0008F929F92AF92BF92CF92DF92EF92FF9246
:1042B0000F931F93CF93DF93CDB7DEB7CA1BDB0BF2
:1042C0000FB6F894DEBF0FBECDBF09942A88398897
:1042D00048885F846E847D848C849B84AA84B9849E
:1042E000C884DF80EE80FD800C811B81AA81B981AA
:1042F000CE0FD11D0FB6F894DEBF0FBECDBFED01BE
:10430000089513E0C2E0D3E004C0FE010E940C1E39
:0C4310002196C330D107C9F7F894FFCF05
:10431C0002170214C4093200031401C40901F03F4E
:10432C00F03F50315032534947303100256400255D
:10433C0034780022003150325000253278256E003E
:10434C00300000000000931ABB1B351A731A071AB1
:08435C00211A131A0D0A0000DA
:00000001FF
